S01E000053656C6644726976696E672D6361722D7068617365312E73726563D7
S11300000C9434000C945E000C94C5000C945100C4
S11300100C9451000C9451000C9451000C94510018
S11300200C9451000C9467010C9451000C945100F1
S11300300C9451000C9451000C9451000C945100F8
S11300400C942E010C9451000C9451000C9451000A
S11300500C9451000C9451000C9451000C945100D8
S11300600C9451000C94510011241FBECFEFD8E022
S1130070DEBFCDBF11E0A0E0B1E0EAE4F7E002C0EA
S113008005900D92A630B107D9F721E0A6E0B1E0C2
S113009001C01D92A234B207E1F70E9453000C94F0
S11300A0A3030C9400000E94AB010E94A1010E94D2
S11300B0D50168E282E00E94D901FBCF1F920F9222
S11300C00FB60F9211242F933F934F935F936F9327
S11300D07F938F939F93AF93BF93EF93FF938091FD
S11300E01101813009F040C080910F0181110DC0D0
S11300F016BC81E080930F0110920A0110920B014B
S113010010920C0110920D012FC080910A01909160
S11301100B01A0910C01B0910D01BA2FA92F982FBA
S1130120882726B5BC01CD01620F711D811D911D6B
S11301300E94A80223E333E349E654E40E94070241
S11301400E94790260933E0170933F0180934001C5
S11301509093410110920A0110920B0110920C012C
S113016010920D0110920F01FF91EF91BF91AF9189
S11301709F918F917F916F915F914F913F912F91BB
S11301800F900FBE0F901F9018951F920F920FB6ED
S11301900F9211242F933F934F935F936F937F9309
S11301A08F939F93AF93BF93EF93FF93809110012D
S11301B0813009F042C080910E0181110EC010926D
S11301C0B20081E080930E011092060110920701A3
S11301D0109208011092090130C08091060190919B
S11301E00701A0910801B0910901BA2FA92F982FF6
S11301F088272091B200BC01CD01620F711D811DC1
S1130200911D0E94A80223E333E349E654E40E94CB
S113021007020E94790260933A0170933B01809334
S11302203C0190933D011092060110920701109237
S113023008011092090110920E01FF91EF91BF91F4
S1130240AF919F918F917F916F915F914F913F916A
S11302502F910F900FBE0F901F9018951F920F9221
S11302600FB60F9211242F938F939F93AF93BF9345
S113027080910A0190910B01A0910C01B0910D01A4
S11302800196A11DB11D80930A0190930B01A093C7
S11302900C01B0930D018B3D9240A105B10568F0AE
S11302A016BC1092110110920F0110920A011092C3
S11302B00B0110920C0110920D01BF91AF919F910F
S11302C08F912F910F900FBE0F901F9018951F9232
S11302D00F920FB60F9211242F938F939F93AF9386
S11302E0BF938091060190910701A0910801B091FC
S11302F009010196A11DB11D809306019093070188
S1130300A0930801B09309018B3D9240A105B1056A
S113031070F01092B2001092100110920E0110921F
S11303200601109207011092080110920901BF9171
S1130330AF919F918F912F910F900FBE0F901F90AF
S113034018958AB180648AB984B5836884BD85B5FB
S1130350816085BD08958AB180628AB984B583625B
S113036084BD85B5816085BD0895682F70E080E007
S113037090E00E94AA0223E333E343E250E40E94A4
S113038036030E94790267BD0895682F70E080E00B
S113039090E00E94AA0223E333E343E250E40E9484
S11303A036030E94790268BD089584B18F6084B9D0
S11303B00895CF93C62F95B1907FE82FF0E0E050D9
S11303C0FF4F2081922B95B9823038F4862F0E94FA
S11303D0B5018C2F0E94C50118C0823039F4862FD4
S11303E00E94B5018C2F0E94C5010FC0833039F4DF
S11303F0862F0E94B5018C2F0E94C50106C080E0A3
S11304000E94B50180E00E94C501CF9108950E9429
S11304101B020C94FC020E94F50258F00E94EE02AA
S113042040F029F45F3F29F00C94E50251110C943B
S113043030030C94EB020E940D0368F39923B1F38B
S1130440552391F3951B550BBB27AA2762177307F6
S1130450840738F09F5F5F4F220F331F441FAA1F8A
S1130460A9F335D00E2E3AF0E0E832D09150504046
S1130470E695001CCAF72BD0FE2F29D0660F771FF4
S1130480881FBB1F261737074807AB07B0E809F0DA
S1130490BB0B802DBF01FF2793585F4F3AF09E3F5F
S11304A0510578F00C94E5020C9430035F3FE4F3BB
S11304B0983ED4F3869577956795B795F7959F5FA2
S11304C0C9F7880F911D9695879597F90895E1E0EE
S11304D0660F771F881FBB1F621773078407BA074D
S11304E020F0621B730B840BBA0BEE1F88F7E095A8
S11304F008950E94150388F09F5798F0B92F992703
S1130500B751B0F0E1F0660F771F881F991F1AF0FA
S1130510BA95C9F714C0B13091F00E942F03B1E02D
S113052008950C942F03672F782F8827B85F39F02C
S1130530B93FCCF3869577956795B395D9F73EF493
S113054090958095709561957F4F8F4F9F4F08953B
S1130550E89409C097FB3EF4909580957095619559
S11305607F4F8F4F9F4F9923A9F0F92F96E9BB270F
S11305709395F695879577956795B795F111F8CF8B
S1130580FAF4BB0F11F460FF1BC06F5F7F4F8F4FF6
S11305909F4F16C0882311F096E911C0772321F0EC
S11305A09EE8872F762F05C0662371F096E8862F84
S11305B070E060E02AF09A95660F771F881FDAF7DB
S11305C0880F9695879597F9089597F99F6780E81E
S11305D070E060E008959FEF80EC089500240A9491
S11305E01616170618060906089500240A9412160A
S11305F01306140605060895092E0394000C11F43D
S1130600882352F0BB0F40F4BF2B11F460FF04C0E9
S11306106F5F7F4F8F4F9F4F089557FD9058440F42
S1130620551F59F05F3F71F04795880F97FB991F4D
S113063061F09F3F79F0879508951216130614060A
S1130640551FF2CF4695F1DF08C016161706180697
S1130650991FF1CF86957105610508940895E89472
S1130660BB2766277727CB0197F908950E94490392
S11306700C94FC020E94EE0238F00E94F50220F075
S1130680952311F00C94E5020C94EB0211240C94C4
S113069030030E940D0370F3959FC1F3950F50E052
S11306A0551F629FF001729FBB27F00DB11D639F20
S11306B0AA27F00DB11DAA1F649F6627B00DA11DC6
S11306C0661F829F2227B00DA11D621F739FB00D6C
S11306D0A11D621F839FA00D611D221F749F3327DC
S11306E0A00D611D231F849F600D211D822F762F75
S11306F06A2F11249F5750409AF0F1F088234AF052
S1130700EE0FFF1FBB1F661F771F881F91505040BD
S1130710A9F79E3F510580F00C94E5020C94300338
S11307205F3FE4F3983ED4F3869577956795B79544
S1130730F795E7959F5FC1F7FE2B880F911D96955E
S10D0740879597F90895F894FFCF08
S109074A050A0906000087
S9030000FC
