:100000000C9434000C9451000C9451000C94510049
:100010000C9451000C9451000C9451000C9451001C
:100020000C9451000C9451000C9451000C9451000C
:100030000C9451000C9451000C9451000C945100FC
:100040000C9451000C9451000C9451000C945100EC
:100050000C9451000C9451000C9451000C945100DC
:100060000C9451000C94510011241FBECFEFD8E026
:10007000DEBFCDBF21E0A4E0B1E001C01D92A630FB
:10008000B207E1F711E0A0E0B1E0EAE4F2E002C07B
:1000900005900D92A430B107D9F70E9461000C942D
:1000A00023010C9400000E94B00081E090E02091B8
:1000B0000401309105011216130614F080E090E05F
:1000C00008950E945300FDCF8F929F92AF92BF92EE
:1000D000CF92DF92EF92FF92CF93DF93EC01688192
:1000E00079818A819B81611571058105910521F4D2
:1000F00064E279ED8BE597E02DE133EF41E050E0EC
:100100000E94C00049015A019B01AC01A7EAB1E479
:100110000E94DF006B017C01ACEEB4EFA5019401FD
:100120000E94ED00DC01CB018C0D9D1DAE1DBF1D9D
:10013000B7FF03C00197A109B04888839983AA83B8
:10014000BB839F77DF91CF91FF90EF90DF90CF90AF
:10015000BF90AF909F908F9008950E946400089583
:1001600080E091E00E9464000895A0E0B0E08093F8
:10017000000190930101A0930201B093030108953F
:10018000052E97FB1EF400940E94D70057FD07D060
:100190000E94F20007FC03D04EF40C94D700509557
:1001A0004095309521953F4F4F4F5F4F0895909563
:1001B0008095709561957F4F8F4F9F4F08950E9456
:1001C0001401A59F900DB49F900DA49F800D911DCB
:1001D00011240895B7FF0C94DF000E94DF00821BFA
:1001E000930B0895A1E21A2EAA1BBB1BFD010DC0A3
:1001F000AA1FBB1FEE1FFF1FA217B307E407F507D7
:1002000020F0A21BB30BE40BF50B661F771F881FB2
:10021000991F1A9469F760957095809590959B0148
:10022000AC01BD01CF010895A29FB001B39FC001F1
:10023000A39F700D811D1124911DB29F700D811D12
:0A0240001124911D0895F894FFCFDA
:04024A0001000000AF
:00000001FF
