:100000000C9434000C949A000C9400010C94510050
:100010000C9451000C9451000C9451000C9451001C
:100020000C9451000C94A1010C9451000C945100BB
:100030000C9451000C9451000C9451000C945100FC
:100040000C9468010C9451000C9451000C945100D4
:100050000C9451000C9451000C9451000C945100DC
:100060000C9451000C94510011241FBECFEFD8E026
:10007000DEBFCDBF11E0A0E0B1E0E2EBFDE002C0E9
:1000800005900D92A430B107D9F721E0A4E0B1E0CA
:1000900001C01D92A034B207E1F70E945C020C94EB
:1000A000D7060C94000014BC81E085BD16BCEEE6BA
:1000B000F0E080818160808308951092B00081E03B
:1000C0008093B1001092B200E0E7F0E0808181609F
:1000D00080830895579A52985A9AE9E6F0E0808111
:1000E00081608083E89A0C945300569A53985B9AE7
:1000F000E9E6F0E0808184608083E99A0C945D00F9
:1001000080910F01811108C05F9A85E08A95F1F70F
:100110005F9881E080930F01089580910E01811115
:1001200008C05E9A85E08A95F1F75E9881E0809339
:100130000E0108951F920F920FB60F9211242F9364
:100140003F934F935F936F937F938F939F93AF935F
:10015000BF93EF93FF9380910F01813009F03FC06F
:1001600090910D0191110CC016BC80930D0110925D
:1001700008011092090110920A0110920B012FC080
:1001800026B58091080190910901A0910A01B091D2
:100190000B01BA2FA92F982F8827BC01CD01620F20
:1001A000711D811D911D0E945F0323E333E349E626
:1001B00054E40E94BE020E94300360933C0170939D
:1001C0003D0180933E0190933F01109208011092EF
:1001D000090110920A0110920B0110920D01FF917A
:1001E000EF91BF91AF919F918F917F916F915F91AF
:1001F0004F913F912F910F900FBE0F901F90189528
:100200001F920F920FB60F9211242F933F934F938B
:100210005F936F937F938F939F93AF93BF93EF936E
:10022000FF9380910E01813009F041C090910C0143
:1002300091110DC01092B20080930C011092040134
:1002400010920501109206011092070130C0209112
:10025000B2008091040190910501A0910601B09136
:100260000701BA2FA92F982F8827BC01CD01620F53
:10027000711D811D911D0E945F0323E333E349E655
:1002800054E40E94BE020E943003609338017093D0
:10029000390180933A0190933B011092040110922E
:1002A0000501109206011092070110920C01FF91B6
:1002B000EF91BF91AF919F918F917F916F915F91DE
:1002C0004F913F912F910F900FBE0F901F90189557
:1002D0001F920F920FB60F9211242F938F939F931B
:1002E000AF93BF938091080190910901A0910A01F9
:1002F000B0910B010196A11DB11D8093080190934F
:100300000901A0930A01B0930B018B3D9240A10516
:10031000B10568F016BC10920F0110920D011092F9
:1003200008011092090110920A0110920B01BF916D
:10033000AF919F918F912F910F900FBE0F901F90B3
:1003400018951F920F920FB60F9211242F938F932F
:100350009F93AF93BF938091040190910501A09169
:100360000601B09107010196A11DB11D8093040102
:1003700090930501A0930601B09307018B3D924035
:10038000A105B10570F01092B20010920E0110920A
:100390000C011092040110920501109206011092B6
:1003A0000701BF91AF919F918F912F910F900FBE39
:1003B0000F901F90189595B19F70282F207F922B3A
:1003C00095B92898299A0000299832E43A95F1F7CE
:1003D00000C025B12F7030E1839FC0011124822B12
:1003E00085B9299A0000299883EF91E00197F1F7E8
:1003F00000C00000089595B19F70282F207F922B98
:1004000095B9289A299A0000299832E43A95F1F78B
:1004100000C025B12F7030E1839FC0011124822BD1
:1004200085B9299A0000299883EF91E00197F1F7A7
:1004300000C0000008958FEF84B987E893E1019729
:10044000F1F700C0000082E00E94DB0188E20E9418
:10045000DB018CE00E94DB0186E00E94DB0181E091
:100460000E94DB0183EF91E00197F1F700C00000EB
:100470000895CF93DF93EC018991882319F00E94AE
:10048000FB01FACFDF91CF910895CF93DF93EA017B
:10049000811105C0603158F4862F806806C0813014
:1004A00031F4603120F4862F806C0E94DB01CE0194
:1004B000DF91CF910C9439020E941B020E946A00C6
:1004C0000E9475007894C0E0D1E080E1E82E81E0E0
:1004D000F82E04E211E00E94800085E08A95F1F791
:1004E00080913C0190913D01A0913E01B0913F016E
:1004F000BF93AF939F938F93DF93CF93FF92EF922E
:100500000E94ED0340E151E060E070E080E090E0A7
:100510000E94450283EC99E00197F1F700C00000CA
:100520000E948D0095E09A95F1F7809138019091A5
:100530003901A0913A01B0913B01BF93AF939F93D2
:100540008F93DF93CF931F930F930E94ED0344E2A9
:1005500051E061E070E081E090E00E94450283ECB0
:1005600099E00197F1F700C000008DB79EB7409663
:100570000FB6F8949EBF0FBE8DBFADCF0E94D202C2
:100580000C94B3030E94AC0358F00E94A50340F002
:1005900029F45F3F29F00C949C0351110C94E7035C
:1005A0000C94A2030E94C40368F39923B1F355236A
:1005B00091F3951B550BBB27AA2762177307840776
:1005C00038F09F5F5F4F220F331F441FAA1FA9F30C
:1005D00035D00E2E3AF0E0E832D091505040E695FA
:1005E000001CCAF72BD0FE2F29D0660F771F881F5B
:1005F000BB1F261737074807AB07B0E809F0BB0B4E
:10060000802DBF01FF2793585F4F3AF09E3F510561
:1006100078F00C949C030C94E7035F3FE4F3983E5E
:10062000D4F3869577956795B795F7959F5FC9F74A
:10063000880F911D9695879597F90895E1E0660FCB
:10064000771F881FBB1F621773078407BA0720F044
:10065000621B730B840BBA0BEE1F88F7E0950895AD
:100660000E94CC0388F09F5798F0B92F9927B75173
:10067000B0F0E1F0660F771F881F991F1AF0BA9546
:10068000C9F714C0B13091F00E94E603B1E00895BB
:100690000C94E603672F782F8827B85F39F0B93FAD
:1006A000CCF3869577956795B395D9F73EF49095F9
:1006B0008095709561957F4F8F4F9F4F0895E89477
:1006C00009C097FB3EF490958095709561957F4F9A
:1006D0008F4F9F4F9923A9F0F92F96E9BB27939548
:1006E000F695879577956795B795F111F8CFFAF458
:1006F000BB0F11F460FF1BC06F5F7F4F8F4F9F4F89
:1007000016C0882311F096E911C0772321F09EE8E6
:10071000872F762F05C0662371F096E8862F70E04C
:1007200060E02AF09A95660F771F881FDAF7880F26
:100730009695879597F9089597F99F6780E870E0F7
:1007400060E008959FEF80EC089500240A94161647
:10075000170618060906089500240A9412161306AF
:10076000140605060895092E0394000C11F488233D
:1007700052F0BB0F40F4BF2B11F460FF04C06F5F59
:100780007F4F8F4F9F4F089557FD9058440F551F2F
:1007900059F05F3F71F04795880F97FB991F61F003
:1007A0009F3F79F087950895121613061406551F7A
:1007B000F2CF4695F1DF08C0161617061806991FE6
:1007C000F1CF86957105610508940895E894BB27DB
:1007D00066277727CB0197F90895AEE0B0E0E3EF05
:1007E000F3E00C94AE060D891E8986E08C831A8393
:1007F00009838FEF9FE79E838D83AE01475E5F4F36
:100800006F89788DCE0101960E940F04EF81F885E3
:10081000E00FF11F10822E96E4E00C94CA06ABE0C4
:10082000B0E0E5E1F4E00C94A0066C017B018A01E4
:10083000FC0117821682838181FFCCC1CE01019613
:100840003C01F6019381F70193FD859193FF81911E
:100850007F01882309F4BAC1853239F493FD85916B
:1008600093FF81917F01853229F4B60190E00E94C7
:100870000606E7CF912C212C312CFFE1F315D8F09F
:100880008B3279F038F4803279F08332A1F4232D61
:1008900020611DC08D3261F0803369F4232D216009
:1008A00016C0832D8260382EE32DE4603E2E2AC0D0
:1008B000F32DF8601DC037FC2DC020ED280F2A3025
:1008C00040F08E32B9F436FC81C1232D2064322EE3
:1008D00019C036FE06C08AE0989E200D1124922E83
:1008E00011C0EAE02E9E200D1124222EF32DF0627D
:1008F0003F2E08C08C3621F4832D8068382E02C02C
:10090000883641F4F70193FD859193FF81917F0132
:100910008111B3CF982F9F7D9554933028F40C5FAD
:100920001F4F9FE399830DC0833631F0833771F0F9
:10093000833509F059C021C0F801808189830E5F99
:100940001F4F88248394912C530113C02801F2E097
:100950004F0E511CF801A080B18036FE03C0692DF6
:1009600070E002C06FEF7FEFC5010E94FB054C01F4
:100970008201F32DFF773F2E16C0280122E0420EA0
:10098000511CF801A080B18036FE03C0692D70E0D3
:1009900002C06FEF7FEFC5010E94F0054C01F32DFF
:1009A000F0683F2E820133FC1BC0822D90E0881638
:1009B0009906B0F4B60180E290E00E9406062A94FF
:1009C000F4CFF50137FC859137FE81915F01B601C7
:1009D00090E00E94060621102A9421E0821A9108D4
:1009E0008114910471F7E8C0843611F0893641F51D
:1009F000F80137FE07C060817181828193810C5FAD
:100A00001F4F08C060817181072E000C880B990B65
:100A10000E5F1F4FF32DFF763F2E97FF09C0909575
:100A20008095709561957F4F8F4F9F4FF0683F2E57
:100A30002AE030E0A3010E944206882E861845C0B5
:100A4000853731F4232D2F7EB22E2AE030E025C0E9
:100A5000932D997FB92E8F36C1F018F4883579F02F
:100A6000B5C0803719F0883721F0B0C0E92FE061B8
:100A7000BE2EB4FE0DC0FB2DF460BF2E09C034FEA7
:100A80000AC0292F2660B22E06C028E030E005C03B
:100A900020E130E002C020E132E0F801B7FE07C0FB
:100AA00060817181828193810C5F1F4F06C06081DC
:100AB000718180E090E00E5F1F4FA3010E9442060B
:100AC000882E8618FB2DFF773F2E36FE0DC0232D76
:100AD0002E7FA22E891458F434FE0BC032FC09C0BC
:100AE000832D8E7EA82E05C0B82CA32C03C0B82C55
:100AF00001C0B92CA4FE0FC0FE01E80DF11D8081DC
:100B0000803321F49A2D997EA92E09C0A2FE06C039
:100B1000B394B39404C08A2D867809F0B394A3FCEF
:100B200011C0A0FE06C0B21488F4280C922C9B18A9
:100B30000EC0B21460F4B60180E290E00E94060696
:100B4000B394F7CFB21418F42B1802C0982C212CB0
:100B5000A4FE10C0B60180E390E00E940606A2FE4B
:100B600017C0A1FC03C088E790E002C088E590E0D0
:100B7000B6010CC08A2D867859F0A1FE02C08BE226
:100B800001C080E2A7FC8DE2B60190E00E9406065B
:100B9000891438F4B60180E390E00E9406069A9426
:100BA000F7CF8A94F301E80DF11D8081B60190E042
:100BB0000E9406068110F5CF222009F442CEB6012C
:100BC00080E290E00E9406062A94F6CFF601868124
:100BD000978102C08FEF9FEF2B96E2E10C94BC0649
:100BE000FC010590615070400110D8F780959095F8
:100BF0008E0F9F1F0895FC016150704001900110FD
:100C0000D8F7809590958E0F9F1F08950F931F938F
:100C1000CF93DF93FB01238121FD03C08FEF9FEF73
:100C20002CC022FF16C0468157812481358142178E
:100C3000530744F4A081B1819D012F5F3F4F318361
:100C400020838C93268137812F5F3F4F3783268304
:100C500014C08B01EC01FB010084F185E02D0995A6
:100C6000892BE1F6D80116968D919C9117970196E4
:100C700017969C938E931697CE01DF91CF911F917B
:100C80000F910895FA01AA27283051F1203181F1FE
:100C9000E8946F936E7F6E5F7F4F8F4F9F4FAF4F84
:100CA000B1E03ED0B4E03CD0670F781F891F9A1F97
:100CB000A11D680F791F8A1F911DA11D6A0F711D4B
:100CC000811D911DA11D20D009F468943F912AE057
:100CD000269F11243019305D3193DEF6CF0108953F
:100CE000462F4770405D4193B3E00FD0C9F7F6CF70
:100CF000462F4F70405D4A3318F0495D31FD405238
:100D0000419302D0A9F7EACFB4E0A69597958795CD
:100D100077956795BA95C9F70097610571050895AC
:100D20009B01AC010A2E0694579547953795279558
:100D3000BA95C9F7620F731F841F951FA01D0895F0
:100D40002F923F924F925F926F927F928F929F92DB
:100D5000AF92BF92CF92DF92EF92FF920F931F93C9
:100D6000CF93DF93CDB7DEB7CA1BDB0B0FB6F8947A
:100D7000DEBF0FBECDBF09942A88398848885F84BA
:100D80006E847D848C849B84AA84B984C884DF802B
:100D9000EE80FD800C811B81AA81B981CE0FD11D0F
:100DA0000FB6F894DEBF0FBECDBFED010895F894E5
:020DB000FFCF73
:040DB20025640000B4
:00000001FF
