S01E000053656C6644726976696E672D6361722D7068617365312E73726563D7
S11300000C9434000C9484060C94F0060C94510067
S11300100C9451000C9451000C9451000C94510018
S11300200C9451000C9495070C9451000C945100BD
S11300300C9451000C9459070C9451000C945100E9
S11300400C9451000C9451000C9451000C945100E8
S11300500C9451000C9451000C9451000C945100D8
S11300600C9451000C94510011241FBECFEFD8E022
S1130070DEBFCDBF12E0A0E0B1E0E4E6FCE102C0E7
S113008005900D92A632B107D9F722E0A6E2B2E0BC
S113009001C01D92A83AB207E1F70E9419040C941A
S11300A0300E0C9400001092C50087E68093C400C3
S11300B088E08093C10086E08093C2000895809315
S11300C0C600089560913C0170913D0180913E010C
S11300D090913F0128E431EE4AE75FE30E94F20980
S11300E060933C0170933D0180933E0190933F01E6
S11300F008950E94D30A64E670E00E945F0ABC017E
S1130100990F880B990B0E94420920E030E048ECDB
S113011052E40E94980820913C0130913D014091A5
S11301203E0150913F010E949308882314F481E01A
S1130130089580E008950E94D30A63E070E00E946D
S11301405F0A08950E94EB0708956F927F928F9241
S11301509F92AF92BF92CF92DF92EF92FF920F9352
S11301601F93CF93DF93EC0100E010E0812C0F2E5E
S1130170F0ECAF2EF02D0F2EF9E7BF2EF02D0F2E41
S1130180F4EC9F2EF02D24C0FE01EE0FFF1FEC0FA8
S1130190FD1FE00FF11FEE0FFF1FEE0FFF1FEA5DC3
S11301A0FD4FC080D180E280F3802C2D3D2D4E2D5B
S11301B05F2D682D7A2D8B2D992D0E94930888230D
S11301C02CF438018C2CAD2CBE2C9F2C0F5F1F4FB0
S11301D003301105CCF2CE01880F991FC80FD91F27
S11301E0C60DD71DCC0FDD1FCC0FDD1FCA5DDD4F43
S11301F0688179818A819B81DF91CF911F910F91D1
S1130200FF90EF90DF90CF90BF90AF909F908F9032
S11302107F906F9008954F925F926F927F928F922A
S11302209F92AF92BF92CF92DF92EF92FF920F9381
S11302301F93CF93DF93CDB7DEB728970FB6F8940B
S1130240DEBF0FBECDBF0D831E832F8338878C0185
S1130250000F111F080F191F040F151F000F111F86
S1130260000F111F0A5D1D4FD8014D905D906D90D8
S11302707C90409293025092940260929502709204
S11302809602CB010E94A50069837A838B839C83A9
S113029060939B0270939C0280939D0290939E02B4
S11302A0A701960160E070E080E89FE30E942608C1
S11302B09B01AC01C301B2010E94F2092B013C0174
S11302C0A501940169817A818B819C810E94F20944
S11302D02D813E814F8158850E9427089B01AC01E6
S11302E0C701B6010E94F2099B01AC01C301B2012E
S11302F00E94270860938D0270938E0280938F0270
S113030090939002F801608371838283938328968B
S11303100FB6F894DEBF0FBECDBFDF91CF911F9112
S11303200F91FF90EF90DF90CF90BF90AF909F9090
S11303308F907F906F905F904F9008956F927F920F
S11303408F929F92AF92BF92CF92DF92EF92FF92E1
S11303500F931F93CF93DF938C01C0E0D0E0812CE7
S11303600F2EF0ECAF2EF02D0F2EF9E7BF2EF02D4F
S11303700F2EF4EC9F2EF02D23C0F801EE0FFF1F7B
S1130380E00FF11FEC0FFD1FEE0FFF1FEE0FFF1F1D
S1130390EA5DFD4FC080D180E280F3802C2D3D2D9D
S11303A04E2D5F2D682D7A2D8B2D992D0E9493084B
S11303B088232CF43E018C2CAD2CBE2C9F2C219632
S11303C0C330D105D4F2B301770C880B990B0E948A
S11303D04209DF91CF911F910F91FF90EF90DF9031
S11303E0CF90BF90AF909F908F907F906F90089523
S11303F0EAE7F0E0808187608083ACE7B0E08C912D
S113040080648C9380818068808380818064808311
S11304100895ECE7F0E09081907F90839081892BA0
S11304208083EAE7F0E080818064808380917A00B1
S113043086FDFCCF809178009091790008950F9308
S11304401F93CF930E94F801C0E080E090E00BC0BE
S11304508C01000F111F8C2F0E94090281709927B3
S1130460802B912BCF5FC03198F30E94D80ACF9193
S11304701F910F9108950F931F93CF93DF938B01D7
S11304809F938F9388E491E09F938F9382E692E009
S11304909F938F930E94E30A0F900F900F900F90F9
S11304A00F900F90C0E0D0E00DC0FE01EE59FD4F5B
S11304B080810E945F0087E893E10197F1F700C013
S11304C000002196C017D10784F3DF91CF911F91CB
S11304D00F910895EF92FF920F931F93CF93DF93A1
S11304E07C018B01C0E0D0E00DC0F701EC0FFD1FD3
S11304F080810E945F0087E893E10197F1F700C0D3
S113050000002196C017D10784F3DF91CF911F918A
S11305100F91FF90EF9008952F923F924F925F9228
S11305206F927F928F929F92AF92BF92CF92DF92FF
S1130530EF92FF920F931F93CF93DF9300D000D0DD
S113054000D0CDB7DEB769837A838B839C838A011D
S11305503E832D830E940A092B013C010F2EFAE0F1
S1130560CF2ED12CF02DCB01B6010E945F0A9C0145
S1130570D80113968C930F2EF4E6EF2EF12CF02D68
S1130580C201B7010E945F0A5C01821B930BB60192
S11305900E945F0AD80112966C930F2EF8EE2F2E4C
S11305A0F3E03F2EF02DC201B1010E945F0A9C01CD
S11305B08A199B09B7010E945F0AD80111966C93AE
S11305C00F2EF0E18F2EF7E29F2EF02DC201B40121
S11305D00E945F0A821B930BB1010E945F0AF8011B
S11305E06083B201550C880B990B0E9442099B0150
S11305F0AC0169817A818B819C810E94260820E06C
S113060030E44CE156E40E94F2090E940A099B017D
S1130610CB01B6010E945F0A5C01AD81BE811396D5
S11306208C93C901B7010E945F0AFC018A199B09D6
S1130630B6010E945F0AAD81BE8112966C93C90116
S1130640B1010E945F0A6C018E1B9F0BB7010E94CF
S11306505F0AED81FE816183C901B4010E945F0AD2
S11306608C199D09B1010E945F0A6083E12CF12C71
S11306700CC0F801EE0DFF1D808161E070E090E098
S11306800E943B02FFEFEF1AFF0A84E0E816F10430
S113069084F361E070E08BE491E00E946A0200E080
S11306A010E00CC0ED81FE81E00FF11F808161E05C
S11306B070E090E00E943B020F5F1F4F0430110571
S11306C08CF326960FB6F894DEBF0FBECDBFDF9134
S11306D0CF911F910F91FF90EF90DF90CF90BF903B
S11306E0AF909F908F907F906F905F904F903F90CE
S11306F02F9008950F931F93CF93DF9381E088B9D0
S11307002FE38DE093E0215080409040E1F700C05A
S1130710000018B862E070E08DE491E00E946A0283
S11307206EE170E08FE491E00E946A0262E070E0A2
S11307308DE491E00E946A026EE170E08FE691E040
S11307400E946A0262E070E08DE491E00E946A0215
S11307506EE170E08FE491E00E946A0262E070E072
S11307608DE491E00E946A0200E010E043C061E081
S113077070E08EE891E00E946A0261E070E0C801D6
S11307800E943B0265E170E08AE591E00E946A0202
S113079062E070E08DE491E00E946A02C0E0D0E083
S11307A01EC0F801EE0FFF1FE00FF11FEC0FFD1F3D
S11307B0EE0FFF1FEE0FFF1FEA5DFD4F6081718199
S11307C0828193812AE832E04FE952E00E948C0250
S11307D061E070E080E991E00E946A022196C330F2
S11307E0D105FCF262E070E08DE491E00E946A02BF
S11307F00F5F1F4F043011050CF4B9CFDF91CF9177
S11308001F910F910895009719F40E940706089507
S11308108130910519F40E94F505089582309105FF
S113082019F40E94E3050895039711F40E94190630
S113083008958FEF87B90E9487050E947D050E9465
S11308403A060E944E060E94B1050E945300789415
S11308500E941F022AE832E04FE952E06AEF7EE389
S113086088EC92E40E948C0262E070E08DE491E0F6
S11308700E946A02612C712C19C16CE170E082E95A
S113088091E00E946A0262E070E0C3010E943B02B0
S113089062E070E08DE491E00E946A020E94A2008E
S11308A0EC0166E070E08FE192E00E946A0261E090
S11308B070E0CE010E943B0262E070E08DE491E0C2
S11308C00E946A020E947900882339F161E170E094
S11308D083EB91E00E946A0262E070E08DE491E0B3
S11308E00E946A020E949B0090938C0280938B0268
S11308F06CE070E085EC91E00E946A0261E070E0D7
S113090080918B0290918C020E943B0262E070E025
S11309108DE491E00E946A022FC061E170E082EDF3
S113092091E00E946A0262E070E08DE491E00E942E
S11309306A020E949B0090938C0280938B02CE01EA
S11309400E949E010E940A0970938C0260938B029C
S11309506CE070E085EC91E00E946A0261E070E076
S113096080918B0290918C020E943B0262E070E0C5
S11309708DE491E00E946A0261E170E084EE91E00E
S11309800E946A0262E070E08DE491E00E946A02D3
S113099080918B0290918C020E9403046CE070E0C1
S11309A085EC91E00E946A0261E070E080918B0224
S11309B090918C020E943B0262E070E08DE491E031
S11309C00E946A020E94A200C817D907A9F262E134
S11309D070E086EF91E00E946A0262E070E08DE4CC
S11309E091E00E946A0284E090E00E94030462E1C4
S11309F070E089E092E00E946A0262E070E08DE4B7
S1130A0091E00E946A020E94A20090939202809355
S1130A10910269E070E08CE192E00E946A0261E078
S1130A2070E080919102909192020E943B0262E0F8
S1130A3070E08DE491E00E946A0240918B02509133
S1130A408C02FE01EE0FFF1FEC0FFD1FE40FF51FDC
S1130A50EE0FFF1FEE0FFF1FEC5FFE4F00811181B1
S1130A602281338100939702109398022093990274
S1130A7030939A028090340190903501A090360111
S1130A80B0903701C0903801D0903901E0903A011C
S1130A90F0903B016091910270919202CE010E940C
S1130AA00B010E9462008FEF681A780A84E66816C8
S1130AB071040CF4E2CE0E947A038AE00E945F0083
S1130AC08AE00E945F008AE00E945F000E94A20008
S1130AD0EC01CE010E949E010E940A0970938C02CF
S1130AE060938B02CB010E9403040E94A200C817EA
S1130AF0D90779F30E941906E3CF8AB180648AB9D1
S1130B0084B5836884BD85B5816085BD08958AB147
S1130B1080628AB984B5836284BD85B5816085BDF0
S1130B200895682F70E080E090E00E94420923E37A
S1130B3033E343E250E40E94F2090E94110967BDC5
S1130B400895682F70E080E090E00E94420923E35A
S1130B5033E343E250E40E94F2090E94110968BDA4
S1130B60089584B18F6084B90895CF93C62F95B149
S1130B70907FE82FF0E0E05CFE4F2081922B95B946
S1130B80823038F4862F0E9491058C2F0E94A10593
S1130B9018C0823039F4862F0E9491058C2F0E9450
S1130BA0A1050FC0833039F4862F0E9491058C2F44
S1130BB00E94A10506C080E00E94910580E00E9489
S1130BC0A105CF91089567E382E00E94B5052FE760
S1130BD08AE196E0215080409040E1F700C0000097
S1130BE060E084E00E94B505089567E383E00E9415
S1130BF0B5052FE78AE196E0215080409040E1F767
S1130C0000C0000060E084E00E94B505089567E339
S1130C1080E00E94B5052FE78AE196E021508040EC
S1130C209040E1F700C0000060E084E00E94B50558
S1130C30089560E084E00E94B50508951092800054
S1130C4081E0809381001092850010928400EFE689
S1130C50F0E080818160808308951092B00081E08B
S1130C608093B1001092B200E0E7F0E080818160EF
S1130C708083089584B1806284B98AB18B7F8AB9F4
S1130C808BB184608BB9E9E6F0E080818160808378
S1130C908DB381608DBB0E941E06089584B180616E
S1130CA084B98AB1877F8AB98BB188608BB9E9E648
S1130CB0F0E08081846080838DB382608DBB0E946C
S1130CC02D0608958091610281110CC085B1806266
S1130CD085B980E58A95F1F785B18F7D85B981E085
S1130CE08093610208958091600281110CC085B1E6
S1130CF0806185B980E58A95F1F785B18F7E85B9E4
S1130D0081E08093600208951F920F920FB60F92B4
S1130D1011242F933F934F935F936F937F938F93FC
S1130D209F93AF93BF93EF93FF93809161028130C0
S1130D3009F045C080915F02811110C010928500B6
S1130D401092840081E080935F0210925A02109204
S1130D505B0210925C0210925D0231C080915A02D3
S1130D6090915B02A0915C02B0915D02DC01992735
S1130D7088272091840030918500BC01CD01620F49
S1130D80731F811D911D0E94400923E333E349E64B
S1130D9054E40E9498080E9411096093A40270937D
S1130DA0A5028093A6029093A70210925A02109271
S1130DB05B0210925C0210925D0210925F02FF913E
S1130DC0EF91BF91AF919F918F917F916F915F91BF
S1130DD04F913F912F910F900FBE0F901F90189538
S1130DE01F920F920FB60F9211242F933F934F939C
S1130DF05F936F937F938F939F93AF93BF93EF937F
S1130E00FF9380916002813009F042C080915E02BC
S1130E1081110EC01092B20081E080935E021092A4
S1130E20560210925702109258021092590230C082
S1130E308091560290915702A0915802B0915902A4
S1130E40BA2FA92F982F88272091B200BC01CD0179
S1130E50620F711D811D911D0E94400923E333E33C
S1130E6049E654E40E9498080E9411096093A00284
S1130E707093A1028093A2029093A302109256024F
S1130E8010925702109258021092590210925E0268
S1130E90FF91EF91BF91AF919F918F917F916F914E
S1130EA05F914F913F912F910F900FBE0F901F9024
S1130EB018951F920F920FB60F9211242F938F93B0
S1130EC09F93AF93BF9380915A0290915B02A0913C
S1130ED05C02B0915D020196A11DB11D80935A027E
S1130EE090935B02A0935C02B0935D028B3D9240B1
S1130EF0A105B10580F01092850010928400109233
S1130F00610210925F0210925A0210925B021092D8
S1130F105C0210925D02BF91AF919F918F912F91CE
S1130F200F900FBE0F901F9018951F920F920FB63F
S1130F300F9211242F938F939F93AF93BF9380911C
S1130F40560290915702A0915802B091590201960D
S1130F50A11DB11D8093560290935702A09358028D
S1130F60B09359028B3D9240A105B10570F01092E7
S1130F70B2001092600210925E0210925602109219
S1130F8057021092580210925902BF91AF919F914B
S1130F908F912F910F900FBE0F901F9018950E9464
S1130FA0620680E58A95F1F78091A4029091A502EA
S1130FB0A091A602B091A70208950E94730680E54D
S1130FC08A95F1F78091A0029091A102A091A202CA
S1130FD0B091A30208950E94CF07459724F00E9480
S1130FE0DD0745970CF50E94CF07459724F00E9432
S1130FF0DD074497E4F00E94CF07449724F40E944D
S1131000DD074597BCF40E94CF07449724F40E945F
S1131010DD07449794F00E94CF070A978CF00E9452
S1131020DD070A9784F0089580E090E0089581E058
S113103090E0089582E090E0089583E090E00895C0
S113104084E090E0089584E090E008955058BB2730
S1131050AA270E943E080C94B8090E94AA0938F0F5
S11310600E94B10920F039F49F3F19F426F40C943E
S1131070A7090EF4E095E7FB0C94A109E92F0E945F
S1131080C90958F3BA17620773078407950720F054
S113109079F4A6F50C94EB090EF4E0950B2EBA2F17
S11310A0A02D0B01B90190010C01CA01A00111246A
S11310B0FF27591B99F0593F50F4503E68F11A1616
S11310C0F040A22F232F342F4427585FF3CF4695A7
S11310D037952795A795F0405395C9F77EF41F16C9
S11310E0BA0B620B730B840BBAF09150A1F0FF0F93
S11310F0BB1F661F771F881FC2F70EC0BA0F621F7F
S1131100731F841F48F4879577956795B795F7956E
S11311109E3F08F0B0CF9395880F08F09927EE0F03
S11311209795879508950E947D0908F481E00895B4
S11311300E94AC080C94B8090E94B10958F00E94AE
S1131140AA0940F029F45F3F29F00C94A109511138
S11311500C94EC090C94A7090E94C90968F399231B
S1131160B1F3552391F3951B550BBB27AA2762179F
S11311707307840738F09F5F5F4F220F331F441FAC
S1131180AA1FA9F335D00E2E3AF0E0E832D09150E0
S11311905040E695001CCAF72BD0FE2F29D0660FCD
S11311A0771F881FBB1F261737074807AB07B0E810
S11311B009F0BB0B802DBF01FF2793585F4F3AF016
S11311C09E3F510578F00C94A1090C94EC095F3F03
S11311D0E4F3983ED4F3869577956795B795F7959C
S11311E09F5FC9F7880F911D9695879597F9089584
S11311F0E1E0660F771F881FBB1F62177307840720
S1131200BA0720F0621B730B840BBA0BEE1F88F72E
S1131210E09508950E9411096894B1110C94EC09A9
S113122008950E94D10988F09F5798F0B92F992703
S1131230B751B0F0E1F0660F771F881F991F1AF0BD
S1131240BA95C9F714C0B13091F00E94EB09B1E02E
S113125008950C94EB09672F782F8827B85F39F02D
S1131260B93FCCF3869577956795B395D9F73EF456
S113127090958095709561957F4F8F4F9F4F0895FE
S1131280E89409C097FB3EF490958095709561951C
S11312907F4F8F4F9F4F9923A9F0F92F96E9BB27D2
S11312A09395F695879577956795B795F111F8CF4E
S11312B0FAF4BB0F11F460FF1BC06F5F7F4F8F4FB9
S11312C09F4F16C0882311F096E911C0772321F0AF
S11312D09EE8872F762F05C0662371F096E8862F47
S11312E070E060E02AF09A95660F771F881FDAF79E
S11312F0880F9695879597F90895990F0008550FCB
S1131300AA0BE0E8FEEF16161706E807F907C0F087
S113131012161306E407F50798F0621B730B840B8F
S1131320950B39F40A2661F0232B242B252B21F469
S113133008950A2609F4A140A6958FEF811D811D09
S1131340089597F99F6780E870E060E008959FEF43
S113135080EC089500240A94161617061806090648
S1131360089500240A941216130614060506089517
S1131370092E0394000C11F4882352F0BB0F40F49F
S1131380BF2B11F460FF04C06F5F7F4F8F4F9F4FDF
S1131390089557FD9058440F551F59F05F3F71F061
S11313A04795880F97FB991F61F09F3F79F08795C8
S11313B00895121613061406551FF2CF4695F1DF51
S11313C008C0161617061806991FF1CF86957105E1
S11313D0610508940895E894BB2766277727CB0115
S11313E097F908950E94050A0C94B8090E94AA0965
S11313F038F00E94B10920F0952311F00C94A10952
S11314000C94A70911240C94EC090E94C90970F3E7
S1131410959FC1F3950F50E0551F629FF001729F95
S1131420BB27F00DB11D639FAA27F00DB11DAA1FA4
S1131430649F6627B00DA11D661F829F2227B00DF1
S1131440A11D621F739FB00DA11D621F839FA00D7C
S1131450611D221F749F3327A00D611D231F849FCC
S1131460600D211D822F762F6A2F11249F57504023
S11314709AF0F1F088234AF0EE0FFF1FBB1F661F9E
S1131480771F881F91505040A9F79E3F510580F067
S11314900C94A1090C94EC095F3FE4F3983ED4F357
S11314A0869577956795B795F795E7959F5FC1F70B
S11314B0FE2B880F911D9695879597F9089597FBB4
S11314C0072E16F4009407D077FD09D00E94730A02
S11314D007FC05D03EF4909581959F4F0895709533
S11314E061957F4F0895AA1BBB1B51E107C0AA1F3A
S11314F0BB1FA617B70710F0A61BB70B881F991FB1
S11315005A95A9F780959095BC01CD0108958F92C5
S11315109F92AF92BF92CF92DF92EF92FF92CF93BE
S1131520DF93EC01688179818A819B816115710562
S11315308105910521F464E279ED8BE597E02DE1D5
S113154033EF41E050E00E94960D49015A019B019E
S1131550AC01A7EAB1E40E94B50D6B017C01ACEECD
S1131560B4EFA50194010E94C30DDC01CB018C0DE5
S11315709D1DAE1DBF1DB7FF03C00197A109B04853
S113158088839983AA83BB839F77DF91CF91FF9050
S1131590EF90DF90CF90BF90AF909F908F90089581
S11315A00E94870A089580E091E00E94870A0895C6
S11315B0A0E0B0E08093000190930101A0930201A8
S11315C0B09303010895AEE0B0E0E9EEFAE00C94C4
S11315D0D60D0D891E8986E08C831A8309838FEFCB
S11315E09FE79E838D83AE01475E5F4F6F89788D41
S11315F0CE0101960E94050BEF81F885E00FF11FE3
S113160010822E96E4E00C94F20DABE0B0E0EBE037
S1131610FBE00C94C80D6C017B018A01FC0117826C
S11316201682838181FFCCC1CE0101963C01F60173
S11316309381F70193FD859193FF81917F01882325
S113164009F4BAC1853239F493FD859193FF8191F0
S11316507F01853229F4B60190E00E94FC0CE7CFAB
S1131660912C212C312CFFE1F315D8F08B3279F039
S113167038F4803279F08332A1F4232D20611DC027
S11316808D3261F0803369F4232D216016C0832DDF
S11316908260382EE32DE4603E2E2AC0F32DF860DC
S11316A01DC037FC2DC020ED280F2A3040F08E32AB
S11316B0B9F436FC81C1232D2064322E19C036FEC4
S11316C006C08AE0989E200D1124922E11C0EAE0F3
S11316D02E9E200D1124222EF32DF0623F2E08C0E1
S11316E08C3621F4832D8068382E02C0883641F46C
S11316F0F70193FD859193FF81917F018111B3CF10
S1131700982F9F7D9554933028F40C5F1F4F9FE3CF
S113171099830DC0833631F0833771F0833509F036
S113172059C021C0F801808189830E5F1F4F88242E
S11317308394912C530113C02801F2E04F0E511CE5
S1131740F801A080B18036FE03C0692D70E002C0AC
S11317506FEF7FEFC5010E94F10C4C018201F32D64
S1131760FF773F2E16C0280122E0420E511CF801DB
S1131770A080B18036FE03C0692D70E002C06FEF17
S11317807FEFC5010E94E60C4C01F32DF0683F2E5B
S1131790820133FC1BC0822D90E088169906B0F4B8
S11317A0B60180E290E00E94FC0C2A94F4CFF5018B
S11317B037FC859137FE81915F01B60190E00E946C
S11317C0FC0C21102A9421E0821A910881149104BE
S11317D071F7E8C0843611F0893641F5F80137FE17
S11317E007C060817181828193810C5F1F4F08C0A3
S11317F060817181072E000C880B990B0E5F1F4FBF
S1131800F32DFF763F2E97FF09C090958095709534
S113181061957F4F8F4F9F4FF0683F2E2AE030E055
S1131820A3010E94380D882E861845C0853731F4EF
S1131830232D2F7EB22E2AE030E025C0932D997FF0
S1131840B92E8F36C1F018F4883579F0B5C08037D9
S113185019F0883721F0B0C0E92FE061BE2EB4FE44
S11318600DC0FB2DF460BF2E09C034FE0AC0292F21
S11318702660B22E06C028E030E005C020E130E04A
S113188002C020E132E0F801B7FE07C06081718137
S1131890828193810C5F1F4F06C06081718180E05B
S11318A090E00E5F1F4FA3010E94380D882E86180A
S11318B0FB2DFF773F2E36FE0DC0232D2E7FA22E4B
S11318C0891458F434FE0BC032FC09C0832D8E7E7B
S11318D0A82E05C0B82CA32C03C0B82C01C0B92C69
S11318E0A4FE0FC0FE01E80DF11D8081803321F4B8
S11318F09A2D997EA92E09C0A2FE06C0B394B39472
S113190004C08A2D867809F0B394A3FC11C0A0FE0C
S113191006C0B21488F4280C922C9B180EC0B21482
S113192060F4B60180E290E00E94FC0CB394F7CF1F
S1131930B21418F42B1802C0982C212CA4FE10C049
S1131940B60180E390E00E94FC0CA2FE17C0A1FC4B
S113195003C088E790E002C088E590E0B6010CC0BF
S11319608A2D867859F0A1FE02C08BE201C080E284
S1131970A7FC8DE2B60190E00E94FC0C891438F4B7
S1131980B60180E390E00E94FC0C9A94F7CF8A940D
S1131990F301E80DF11D8081B60190E00E94FC0C7A
S11319A08110F5CF222009F442CEB60180E290E006
S11319B00E94FC0C2A94F6CFF6018681978102C01E
S11319C08FEF9FEF2B96E2E10C94E40DFC01059060
S11319D0615070400110D8F7809590958E0F9F1F2D
S11319E00895FC016150704001900110D8F7809572
S11319F090958E0F9F1F08950F931F93CF93DF939E
S1131A00FB01238121FD03C08FEF9FEF2CC022FF38
S1131A1016C046815781248135814217530744F407
S1131A20A081B1819D012F5F3F4F318320838C932F
S1131A30268137812F5F3F4F3783268314C08B0164
S1131A40EC01FB010084F185E02D0995892BE1F679
S1131A50D80116968D919C911797019617969C9391
S1131A608E931697CE01DF91CF911F910F91089518
S1131A70FA01AA27283051F1203181F1E8946F93BB
S1131A806E7F6E5F7F4F8F4F9F4FAF4FB1E03ED061
S1131A90B4E03CD0670F781F891F9A1FA11D680FFF
S1131AA0791F8A1F911DA11D6A0F711D811D911D32
S1131AB0A11D20D009F468943F912AE0269F1124A7
S1131AC03019305D3193DEF6CF010895462F47700B
S1131AD0405D4193B3E00FD0C9F7F6CF462F4F7066
S1131AE0405D4A3318F0495D31FD4052419302D0C4
S1131AF0A9F7EACFB4E0A69597958795779567956A
S1131B00BA95C9F700976105710508959B01AC0169
S1131B100A2E06945795479537952795BA95C9F790
S1131B20620F731F841F951FA01D0895052E97FB38
S1131B301EF400940E94AD0D57FD07D00E94FF0DC6
S1131B4007FC03D04EF40C94AD0D509540953095A0
S1131B5021953F4F4F4F5F4F089590958095709515
S1131B6061957F4F8F4F9F4F08950E94210EA59F2F
S1131B70900DB49F900DA49F800D911D1124089584
S1131B80B7FF0C94B50D0E94B50D821B930B0895FD
S1131B902F923F924F925F926F927F928F929F9279
S1131BA0AF92BF92CF92DF92EF92FF920F931F9367
S1131BB0CF93DF93CDB7DEB7CA1BDB0B0FB6F89418
S1131BC0DEBF0FBECDBF09942A88398848885F8458
S1131BD06E847D848C849B84AA84B984C884DF80C9
S1131BE0EE80FD800C811B81AA81B981CE0FD11DAD
S1131BF00FB6F894DEBF0FBECDBFED010895A1E28C
S1131C001A2EAA1BBB1BFD010DC0AA1FBB1FEE1F72
S1131C10FF1FA217B307E407F50720F0A21BB30BBD
S1131C20E40BF50B661F771F881F991F1A9469F739
S1131C3060957095809590959B01AC01BD01CF0195
S1131C400895A29FB001B39FC001A39F700D811D91
S1131C501124911DB29F700D811D1124911D0895B1
S1071C60F894FFCF22
S1131C640100000000002041000000C0000040C04A
S1131C74000000C000002041000020C1000000C09A
S1131C84000020C100002041000020C10000803F6A
S1131C94000020410000003FCDCC4C3D48E17A3F98
S1131CA4050A0906002566002564002E000A002D95
S1131CB42D2D2D2D2D2D2D2D2D2D2D2D2D2D2D2D4C
S1131CC42D2D2D2D2D2D2D2D2D2D2D2D2D2D002D69
S1131CD42D547261696E696E6746696E73696853DF
S1131CE47461727454657374696E672D2D005300A6
S1131CF420002D2D2D2D2D2D2D2D2D2D2D2D2D2D46
S1131D042D2D2D2D2D2D2D2D2D2D457069736F64A5
S1131D14653D004558504C4F52452D2D2D2D2D2DEC
S1131D242D2D2D2D00416374696F6E54616B656EA6
S1131D343D004558504C4F49542D2D2D2D2D2D2DFE
S1131D442D2D2D00494E5748494C452D2D2D2D2D13
S1131D542D2D2D2D2D004F55545748494C452D2DCF
S1131D642D2D2D2D2D2D2D2D0053544F50505050CD
S1131D74502D2D2D2D2D2D2D2D2D2D004E4557530C
S1091D84746174653D006A
S9030000FC
