:100000000C9434000C9451000C944F010C9451004A
:100010000C9451000C9451000C9451000C9451001C
:100020000C9451000C9451000C9451000C9451000C
:100030000C9451000C9451000C9451000C945100FC
:100040000C94DF010C9451000C9451000C9451005D
:100050000C9451000C9451000C9451000C945100DC
:100060000C9451000C94510011241FBECFEFD8E026
:10007000DEBFCDBF11E0A0E0B1E0ECEFF6E002C0E2
:1000800005900D92A231B107D9F721E0A2E1B1E0CC
:1000900001C01D92A632B207E1F70E9407010C943D
:1000A0007C030C940000982F907F95B995B19E7FAA
:1000B00095B995B1946095B9EFE1FEE43197F1F708
:1000C00000C0000095B19B7F95B9EFE1FEE4319748
:1000D000F1F700C00000F0E18F9FC001112485B945
:1000E00085B1846085B98FE19EE40197F1F700C086
:1000F000000085B18B7F85B9EFE1FEE43197F1F720
:1001000000C0000008958CE684B984B1876084B98A
:1001100088E085B985B1846085B98FE19EE4019757
:10012000F1F700C0000085B18B7F85B98FE19EE4B7
:100130000197F1F700C0000088E20E9453008FE1B0
:100140009EE40197F1F700C000008FE00E94530089
:100150008FE19EE40197F1F700C0000080E80E9463
:1001600053000895982F907F95B995B1916095B9F6
:1001700095B1946095B9EFE1FEE43197F1F700C0D5
:10018000000095B19B7F95B9EFE1FEE43197F1F75F
:1001900000C00000F0E18F9FC001112485B985B136
:1001A000846085B98FE19EE40197F1F700C00000FB
:1001B00085B18B7F85B9EFE1FEE43197F1F700C09F
:1001C000000008950F931F93CF93DF938C01C0E03D
:1001D000D0E003C00E94B2002196F801EC0FFD1F91
:1001E00080818111F7CFDF91CF911F910F910895F9
:1001F00020E4829FC00111248068860F0E94530072
:1002000087EC90E00197F1F700C0000008950E948C
:1002100083000E943001789480E091E00E94E20027
:100220008FE39CE90197F1F700C000000E943E01B6
:100230008FE59AEE0197F1F700C00000F7CF14BCEC
:1002400081E085BD16BCEEE6F0E0808181608083B0
:10025000089585B7846085BF8DB382608DBB089596
:100260008AB181608AB98AB1877F8AB98BB1886087
:100270008BB90E9429010E941F01089580911701E6
:1002800081110CC08BB181608BB980E58A95F1F743
:100290008BB18E7F8BB981E08093170108951F92F7
:1002A0000F920FB60F9211242F933F934F935F93AA
:1002B0006F937F938F939F93AF93BF93EF93FF932E
:1002C00080911701813009F069C080911601811178
:1002D0000DC016BC81E0809316011092120110929D
:1002E0001301109214011092150158C0809112014F
:1002F00090911301A0911401B0911501BA2FA92F6B
:10030000982F882726B5BC01CD01620F711D811D74
:10031000911D0E94B90223E333E349E654E40E94AD
:1003200018020E948A026093180170931901809349
:100330001A0190931B0160E070E081E090E00E9460
:10034000F8004AE06CE171E0809118019091190188
:100350000E944703ACE1B1E00D900020E9F711974E
:1003600085E0EDE0F1E001900D928A95E1F78CE1F6
:1003700091E00E94E2002FEF83EF91E02150804056
:100380009040E1F700C0000010921201109213019A
:10039000109214011092150110921601FF91EF9125
:1003A000BF91AF919F918F917F916F915F914F918D
:1003B0003F912F910F900FBE0F901F9018951F9295
:1003C0000F920FB60F9211242F938F939F93AF9399
:1003D000BF938091120190911301A0911401B091EB
:1003E00015010196A11DB11D809312019093130177
:1003F000A0931401B09315018B3D9240A105B10566
:1004000068F016BC1092170110921601109212019A
:10041000109213011092140110921501BF91AF9127
:100420009F918F912F910F900FBE0F901F90189555
:100430000E942C020C940D030E94060358F00E94A7
:10044000FF0240F029F45F3F29F00C94F6025111AD
:100450000C9441030C94FC020E941E0368F3992340
:10046000B1F3552391F3951B550BBB27AA276217B0
:100470007307840738F09F5F5F4F220F331F441FBD
:10048000AA1FA9F335D00E2E3AF0E0E832D09150F1
:100490005040E695001CCAF72BD0FE2F29D0660FDE
:1004A000771F881FBB1F261737074807AB07B0E821
:1004B00009F0BB0B802DBF01FF2793585F4F3AF027
:1004C0009E3F510578F00C94F6020C9441035F3F77
:1004D000E4F3983ED4F3869577956795B795F795AD
:1004E0009F5FC9F7880F911D9695879597F9089595
:1004F000E1E0660F771F881FBB1F62177307840731
:10050000BA0720F0621B730B840BBA0BEE1F88F73F
:10051000E09508950E94260388F09F5798F0B92F20
:100520009927B751B0F0E1F0660F771F881F991F28
:100530001AF0BA95C9F714C0B13091F00E94400387
:10054000B1E008950C944003672F782F8827B85F97
:1005500039F0B93FCCF3869577956795B395D9F780
:100560003EF490958095709561957F4F8F4F9F4F8A
:100570000895E89409C097FB3EF490958095709596
:1005800061957F4F8F4F9F4F9923A9F0F92F96E9DF
:10059000BB279395F695879577956795B795F11154
:1005A000F8CFFAF4BB0F11F460FF1BC06F5F7F4FF1
:1005B0008F4F9F4F16C0882311F096E911C0772303
:1005C00021F09EE8872F762F05C0662371F096E80C
:1005D000862F70E060E02AF09A95660F771F881FDB
:1005E000DAF7880F9695879597F9089597F99F6799
:1005F00080E870E060E008959FEF80EC08950024AB
:100600000A941616170618060906089500240A9477
:1006100012161306140605060895092E0394000CFD
:1006200011F4882352F0BB0F40F4BF2B11F460FF8C
:1006300004C06F5F7F4F8F4F9F4F089557FD9058B5
:10064000440F551F59F05F3F71F04795880F97FB96
:10065000991F61F09F3F79F0879508951216130650
:100660001406551FF2CF4695F1DF08C0161617067F
:100670001806991FF1CF86957105610508940895B4
:10068000E894BB2766277727CB0197F90895BB2706
:100690004A3031F4992322F4BDE2909581959F4F21
:1006A0000C945303BB27FB015527AA27880F991FDA
:1006B000AA1FA41710F0A41B83955051B9F7A05D91
:1006C000AA3308F0A95DA193009779F7B111B1930E
:1006D0001192CB010C946C03DC01FC01672F71912A
:1006E0007723E1F7329704C07C916D937083629118
:0C06F000AE17BF07C8F30895F894FFCFC1
:1006FC0044697374616E6365206973200020636DB7
:02070C002000CB
:00000001FF
