S0170000512D4C6561726E696E675F416C676F2E737265637D
S11300000C9434000C9451000C9451000C94510045
S11300100C9451000C9451000C9451000C94510018
S11300200C9451000C9451000C9451000C94510008
S11300300C9451000C9451000C9451000C945100F8
S11300400C9451000C9451000C9451000C945100E8
S11300500C9451000C9451000C9451000C945100D8
S11300600C9451000C94510011241FBECFEFD8E022
S1130070DEBFCDBF21E0A4E0B1E001C01D92A430F9
S1130080B207E1F711E0A0E0B1E0E4EAF2E002C077
S113009005900D92A430B107D9F70E945D000C942D
S11300A050010C9400000E94DD0064E670E00E94A0
S11300B069009FEF9AB98BB908950E9453002FE706
S11300C08AE196E0215080409040E1F700C00000B2
S11300D0F4CF97FB072E16F4009407D077FD09D0D0
S11300E00E947D0007FC05D03EF4909581959F4FBA
S11300F00895709561957F4F0895AA1BBB1B51E12C
S113010007C0AA1FBB1FA617B70710F0A61BB70B83
S1130110881F991F5A95A9F780959095BC01CD0128
S113012008958F929F92AF92BF92CF92DF92EF92F7
S1130130FF92CF93DF93EC01688179818A819B815F
S1130140611571058105910521F464E279ED8BE572
S113015097E02DE133EF41E050E00E94ED004901CA
S11301605A019B01AC01A7EAB1E40E940C016B01A6
S11301707C01ACEEB4EFA50194010E941A01DC01EC
S1130180CB018C0D9D1DAE1DBF1DB7FF03C0019794
S1130190A109B04888839983AA83BB839F77DF91A1
S11301A0CF91FF90EF90DF90CF90BF90AF909F9052
S11301B08F9008950E949100089580E091E00E943C
S11301C091000895A0E0B0E08093000190930101B4
S11301D0A0930201B09303010895052E97FB1EF42A
S11301E000940E94040157FD07D00E941F0107FCE0
S11301F003D04EF40C94040150954095309521950C
S11302003F4F4F4F5F4F089590958095709561953E
S11302107F4F8F4F9F4F08950E944101A59F900DDE
S1130220B49F900DA49F800D911D11240895B7FFD4
S11302300C940C010E940C01821B930B0895A1E203
S11302401A2EAA1BBB1BFD010DC0AA1FBB1FEE1F4C
S1130250FF1FA217B307E407F50720F0A21BB30B97
S1130260E40BF50B661F771F881F991F1A9469F713
S113027060957095809590959B01AC01BD01CF016F
S11302800895A29FB001B39FC001A39F700D811D6B
S11302901124911DB29F700D811D1124911D08958B
S10702A0F894FFCFFC
S10702A40100000051
S9030000FC
