S01E000053656C6644726976696E672D6361722D7068617365312E73726563D7
S11300000C9434000C9449000C9449000C9449005D
S11300100C9449000C9449000C9449000C94490038
S11300200C9449000C9449000C9449000C94490028
S11300300C9449000C9449000C9449000C94490018
S11300400C9449000C9449000C9449000C94490008
S11300500C9449000C9449000C9449000C944900F8
S11300600C9449000C94490011241FBECFEFD8E032
S1130070DEBFCDBF11E0A0E0B1E0E8ECF3E002C0E8
S113008005900D92A630B107D9F70E944B000C944D
S1130090E2010C9400000E9474000E946C000E9413
S11300A09C0062E380E00E94A0002FEB87E299E0CD
S11300B0215080409040E1F700C0000062E381E0FD
S11300C00E94A0002FEB87E299E0215080409040ED
S11300D0E1F700C00000E5CF569A84B5836884BD7B
S11300E085B5816085BD0895559A84B5836284BDC4
S11300F085B5816085BD0895682F70E080E090E04B
S11301000E94E90023E333E343E250E40E944D01FB
S11301100E94B80067BD0895682F70E080E090E009
S11301200E94E90023E333E343E250E40E944D01DB
S11301300E94B80068BD08958AB18F608AB9089595
S1130140CF939BB1907FE82FF0E0E050FF4F2081E8
S1130150922B9BB9843040F4C62F862F0E947C00DA
S11301608C2FCF910C948C0017BC18BCCF910895A0
S11301700E942C0188F09F5798F0B92F9927B75106
S1130180B0F0E1F0660F771F881F991F1AF0BA9537
S1130190C9F714C0B13091F00E944601B1E008954E
S11301A00C944601672F782F8827B85F39F0B93F40
S11301B0CCF3869577956795B395D9F73EF49095EA
S11301C08095709561957F4F8F4F9F4F0895E89468
S11301D009C097FB3EF490958095709561957F4F8B
S11301E08F4F9F4F9923A9F0F92F96E9BB27939539
S11301F0F695879577956795B795F111F8CFFAF449
S1130200BB0F11F460FF1BC06F5F7F4F8F4F9F4F79
S113021016C0882311F096E911C0772321F09EE8D7
S1130220872F762F05C0662371F096E8862F70E03D
S113023060E02AF09A95660F771F881FDAF7880F17
S11302409695879597F9089557FD9058440F551F33
S113025059F05F3F71F04795880F97FB991F61F044
S11302609F3F79F087950895121613061406551FBB
S1130270F2CF4695F1DF08C0161617061806991F27
S1130280F1CF86957105610508940895E894BB271C
S113029066277727CB0197F908950E9460010C9493
S11302A0D1010E94C30138F00E94CA0120F09523B5
S11302B011F00C94BA010C94C00111240C94470160
S11302C00E94240170F3959FC1F3950F50E0551FD0
S11302D0629FF001729FBB27F00DB11D639FAA2797
S11302E0F00DB11DAA1F649F6627B00DA11D661FE6
S11302F0829F2227B00DA11D621F739FB00DA11D07
S1130300621F839FA00D611D221F749F3327A00DC0
S1130310611D231F849F600D211D822F762F6A2F5C
S113032011249F5750409AF0F1F088234AF0EE0FC1
S1130330FF1FBB1F661F771F881F91505040A9F7EE
S11303409E3F510580F00C94BA010C9447015F3F25
S1130350E4F3983ED4F3869577956795B795F7952A
S1130360E7959F5FC1F7FE2B880F911D96958795A2
S113037097F9089597F99F6780E870E060E0089521
S11303809FEF80EC089500240A94161617061806A9
S11303900906089500240A94121613061406050685
S11303A00895092E0394000C11F4882352F0BB0F16
S11303B040F4BF2B11F460FF04C06F5F7F4F8F4F79
S10B03C09F4F0895F894FFCF4C
S10903C8050A090600000D
S9030000FC
