:100000000C9434000C94A6000C940C010C94510038
:100010000C9451000C9451000C9451000C9451001C
:100020000C9451000C94AD010C9451000C945100AF
:100030000C9451000C9451000C9451000C945100FC
:100040000C9474010C9451000C9451000C945100C8
:100050000C9451000C9451000C9451000C945100DC
:100060000C9451000C94510011241FBECFEFD8E026
:10007000DEBFCDBF11E0A0E0B1E0E2E0FFE002C0F2
:1000800005900D92A830B107D9F721E0A8E0B1E0C2
:1000900001C01D92A434B207E1F70E943B020C9408
:1000A0007F070C9400001092C50087E68093C4007F
:1000B00088E08093C10086E08093C200089514BC5C
:1000C00081E085BD16BCEEE6F0E080818160808332
:1000D00008951092B00081E08093B1001092B200B8
:1000E000E0E7F0E08081816080830895259A52984E
:1000F0005A9AE9E6F0E0808181608083E89A0C9466
:100100005F00249A53985B9AE9E6F0E0808184606E
:100110008083E99A0C94690080911301811108C0D1
:100120002D9A85E08A95F1F72D9881E0809313014F
:10013000089580911201811108C02C9A85E08A955A
:10014000F1F72C9881E08093120108951F920F928D
:100150000FB60F9211242F933F934F935F936F939A
:100160007F938F939F93AF93BF93EF93FF93809170
:100170001301813009F03FC09091110191110CC021
:1001800016BC8093110110920C0110920D01109277
:100190000E0110920F012FC026B580910C01909195
:1001A0000D01A0910E01B0910F01BA2FA92F982F28
:1001B0008827BC01CD01620F711D811D911D0E9418
:1001C0009A0323E333E349E654E40E94F9020E94D0
:1001D0006B036093400170934101809342019093BF
:1001E000430110920C0110920D0110920E01109219
:1001F0000F0110921101FF91EF91BF91AF919F916B
:100200008F917F916F915F914F913F912F910F90BF
:100210000FBE0F901F9018951F920F920FB60F925E
:1002200011242F933F934F935F936F937F938F93FB
:100230009F93AF93BF93EF93FF938091120181300F
:1002400009F041C09091100191110DC01092B200BF
:1002500080931001109208011092090110920A0176
:1002600010920B0130C02091B20080910801909152
:100270000901A0910A01B0910B01BA2FA92F982F63
:100280008827BC01CD01620F711D811D911D0E9447
:100290009A0323E333E349E654E40E94F9020E94FF
:1002A0006B0360933C0170933D0180933E019093FA
:1002B0003F01109208011092090110920A01109258
:1002C0000B0110921001FF91EF91BF91AF919F919F
:1002D0008F917F916F915F914F913F912F910F90EF
:1002E0000FBE0F901F9018951F920F920FB60F928E
:1002F00011242F938F939F93AF93BF9380910C0101
:1003000090910D01A0910E01B0910F010196A11DD8
:10031000B11D80930C0190930D01A0930E01B09339
:100320000F018B3D9240A105B10568F016BC1092FB
:1003300013011092110110920C0110920D011092F4
:100340000E0110920F01BF91AF919F918F912F914C
:100350000F900FBE0F901F9018951F920F920FB61F
:100360000F9211242F938F939F93AF93BF938091FC
:10037000080190910901A0910A01B0910B01019629
:10038000A11DB11D8093080190930901A0930A015A
:10039000B0930B018B3D9240A105B10570F0109216
:1003A000B2001092120110921001109208011092E6
:1003B000090110920A0110920B01BF91AF919F9118
:1003C0008F912F910F900FBE0F901F9018950E9444
:1003D0008C0085E08A95F1F7809140019091410170
:1003E000A0914201B091430108950E94990085E0D7
:1003F0008A95F1F780913C0190913D01A0913E01D9
:10040000B0913F0108950E94E70145972CF40E94A6
:10041000E701459764F406C00E94F5014597BCF3D7
:1004200080E027C00E94E701449764F006C00E9464
:10043000F5014497BCF781E01CC00E94E701449796
:1004400064F006C00E94F5014597BCF382E011C03C
:100450000E94E7010F973CF407C00E94F501449702
:10046000BCF783E006C008950E94F5010F97DCF702
:1004700084E090E008958FEF84B90E94B7020E9453
:10048000AF020E94DF020E9453000E9476000E9489
:10049000810085E0E82E81E0F82E04E111E0CAE059
:1004A00068E280E00E94E3020E9403029F938F9320
:1004B000FF92EF921F930F930E9495048091140175
:1004C0008093C60087EA91E60197F1F700C000002B
:1004D000C093C600809115018093C60087EA91E61B
:1004E0000197F1F700C00000C093C60087E99AE3C6
:1004F0000197F1F700C0000068E284E00E94E30287
:100500000E9403029F938F93FF92EF921F930F938A
:100510000E949504809114018093C60087EA91E6B9
:100520000197F1F700C00000C093C600809115014B
:100530008093C60087EA91E60197F1F700C00000BA
:10054000C093C60068E284E00E94E3028DB79EB7C4
:100550000C960FB6F8949EBF0FBE8DBFA1CF569AD2
:1005600084B5836884BD85B5816085BD0895559A3D
:1005700084B5836284BD85B5816085BD0895682F8B
:1005800070E080E090E00E949C0323E333E343E2C9
:1005900050E40E9428040E946B0367BD0895682FF1
:1005A00070E080E090E00E949C0323E333E343E2A9
:1005B00050E40E9428040E946B0368BD089584B132
:1005C0008F6084B90895CF9395B1E82FF0E0E050A3
:1005D000FF4F908195B9843040F4C62F862F0E943A
:1005E000BF028C2FCF910C94CF0217BC18BCCF91B7
:1005F00008950E940D030C94EE030E94E70358F047
:100600000E94E00340F029F45F3F29F00C94D703E7
:1006100051110C9422040C94DD030E94FF0368F333
:100620009923B1F3552391F3951B550BBB27AA27AB
:1006300062177307840738F09F5F5F4F220F331FE5
:10064000441FAA1FA9F335D00E2E3AF0E0E832D0AD
:1006500091505040E695001CCAF72BD0FE2F29D0B0
:10066000660F771F881FBB1F261737074807AB0782
:10067000B0E809F0BB0B802DBF01FF2793585F4FF7
:100680003AF09E3F510578F00C94D7030C94220465
:100690005F3FE4F3983ED4F3869577956795B795D9
:1006A000F7959F5FC9F7880F911D9695879597F9E4
:1006B0000895E1E0660F771F881FBB1F621773075D
:1006C0008407BA0720F0621B730B840BBA0BEE1F72
:1006D00088F7E09508950E94070488F09F5798F0E6
:1006E000B92F9927B751B0F0E1F0660F771F881F37
:1006F000991F1AF0BA95C9F714C0B13091F00E9451
:100700002104B1E008950C942104672F782F8827E5
:10071000B85F39F0B93FCCF3869577956795B39577
:10072000D9F73EF490958095709561957F4F8F4FE6
:100730009F4F0895E89409C097FB3EF490958095EB
:10074000709561957F4F8F4F9F4F9923A9F0F92F97
:1007500096E9BB279395F695879577956795B79515
:10076000F111F8CFFAF4BB0F11F460FF1BC06F5FFB
:100770007F4F8F4F9F4F16C0882311F096E911C00D
:10078000772321F09EE8872F762F05C0662371F02E
:1007900096E8862F70E060E02AF09A95660F771F42
:1007A000881FDAF7880F9695879597F9089597F936
:1007B0009F6780E870E060E008959FEF80EC089507
:1007C00000240A9416161706180609060895002430
:1007D0000A9412161306140605060895092E0394AA
:1007E000000C11F4882352F0BB0F40F4BF2B11F41E
:1007F00060FF04C06F5F7F4F8F4F9F4F089557FD7D
:100800009058440F551F59F05F3F71F04795880F7E
:1008100097FB991F61F09F3F79F087950895121615
:1008200013061406551FF2CF4695F1DF08C01616C1
:1008300017061806991FF1CF869571056105089472
:100840000895E894BB2766277727CB0197F9089589
:100850000E943B040C94EE030E94E00338F00E94D7
:10086000E70320F0952311F00C94D7030C94DD03DB
:1008700011240C9422040E94FF0370F3959FC1F38E
:10088000950F50E0551F629FF001729FBB27F00D3E
:10089000B11D639FAA27F00DB11DAA1F649F662793
:1008A000B00DA11D661F829F2227B00DA11D621FE2
:1008B000739FB00DA11D621F839FA00D611D221F9C
:1008C000749F3327A00D611D231F849F600D211D80
:1008D000822F762F6A2F11249F5750409AF0F1F003
:1008E00088234AF0EE0FFF1FBB1F661F771F881F6C
:1008F00091505040A9F79E3F510580F00C94D703CA
:100900000C9422045F3FE4F3983ED4F386957795E8
:100910006795B795F795E7959F5FC1F7FE2B880F11
:10092000911D9695879597F90895AEE0B0E0EBE9B3
:10093000F4E00C9456070D891E8986E08C831A8397
:1009400009838FEF9FE79E838D83AE01475E5F4FE4
:100950006F89788DCE0101960E94B704EF81F885EA
:10096000E00FF11F10822E96E4E00C947207ABE0CA
:10097000B0E0EDEBF4E00C9448076C017B018A01D8
:10098000FC0117821682838181FFCCC1CE010196C2
:100990003C01F6019381F70193FD859193FF8191CD
:1009A0007F01882309F4BAC1853239F493FD85911A
:1009B00093FF81917F01853229F4B60190E00E9476
:1009C000AE06E7CF912C212C312CFFE1F315D8F0A6
:1009D0008B3279F038F4803279F08332A1F4232D10
:1009E00020611DC08D3261F0803369F4232D2160B8
:1009F00016C0832D8260382EE32DE4603E2E2AC07F
:100A0000F32DF8601DC037FC2DC020ED280F2A30D3
:100A100040F08E32B9F436FC81C1232D2064322E91
:100A200019C036FE06C08AE0989E200D1124922E31
:100A300011C0EAE02E9E200D1124222EF32DF0622B
:100A40003F2E08C08C3621F4832D8068382E02C0DA
:100A5000883641F4F70193FD859193FF81917F01E1
:100A60008111B3CF982F9F7D9554933028F40C5F5C
:100A70001F4F9FE399830DC0833631F0833771F0A8
:100A8000833509F059C021C0F801808189830E5F48
:100A90001F4F88248394912C530113C02801F2E046
:100AA0004F0E511CF801A080B18036FE03C0692DA5
:100AB00070E002C06FEF7FEFC5010E94A3064C01FA
:100AC0008201F32DFF773F2E16C0280122E0420E4F
:100AD000511CF801A080B18036FE03C0692D70E082
:100AE00002C06FEF7FEFC5010E9498064C01F32D05
:100AF000F0683F2E820133FC1BC0822D90E08816E7
:100B00009906B0F4B60180E290E00E94AE062A9405
:100B1000F4CFF50137FC859137FE81915F01B60175
:100B200090E00E94AE0621102A9421E0821A9108DA
:100B30008114910471F7E8C0843611F0893641F5CB
:100B4000F80137FE07C060817181828193810C5F5B
:100B50001F4F08C060817181072E000C880B990B14
:100B60000E5F1F4FF32DFF763F2E97FF09C0909524
:100B70008095709561957F4F8F4F9F4FF0683F2E06
:100B80002AE030E0A3010E94EA06882E861845C0BC
:100B9000853731F4232D2F7EB22E2AE030E025C098
:100BA000932D997FB92E8F36C1F018F4883579F0DE
:100BB000B5C0803719F0883721F0B0C0E92FE06167
:100BC000BE2EB4FE0DC0FB2DF460BF2E09C034FE56
:100BD0000AC0292F2660B22E06C028E030E005C0EA
:100BE00020E130E002C020E132E0F801B7FE07C0AA
:100BF00060817181828193810C5F1F4F06C060818B
:100C0000718180E090E00E5F1F4FA3010E94EA0611
:100C1000882E8618FB2DFF773F2E36FE0DC0232D24
:100C20002E7FA22E891458F434FE0BC032FC09C06A
:100C3000832D8E7EA82E05C0B82CA32C03C0B82C03
:100C400001C0B92CA4FE0FC0FE01E80DF11D80818A
:100C5000803321F49A2D997EA92E09C0A2FE06C0E8
:100C6000B394B39404C08A2D867809F0B394A3FC9E
:100C700011C0A0FE06C0B21488F4280C922C9B1858
:100C80000EC0B21460F4B60180E290E00E94AE069D
:100C9000B394F7CFB21418F42B1802C0982C212C5F
:100CA000A4FE10C0B60180E390E00E94AE06A2FE52
:100CB00017C0A1FC03C088E790E002C088E590E07F
:100CC000B6010CC08A2D867859F0A1FE02C08BE2D5
:100CD00001C080E2A7FC8DE2B60190E00E94AE0662
:100CE000891438F4B60180E390E00E94AE069A942D
:100CF000F7CF8A94F301E80DF11D8081B60190E0F1
:100D00000E94AE068110F5CF222009F442CEB60132
:100D100080E290E00E94AE062A94F6CFF60186812A
:100D2000978102C08FEF9FEF2B96E2E10C9464074E
:100D3000FC010590615070400110D8F780959095A6
:100D40008E0F9F1F0895FC016150704001900110AB
:100D5000D8F7809590958E0F9F1F08950F931F933E
:100D6000CF93DF93FB01238121FD03C08FEF9FEF22
:100D70002CC022FF16C0468157812481358142173D
:100D8000530744F4A081B1819D012F5F3F4F318310
:100D900020838C93268137812F5F3F4F37832683B3
:100DA00014C08B01EC01FB010084F185E02D099555
:100DB000892BE1F6D80116968D919C911797019693
:100DC00017969C938E931697CE01DF91CF911F912A
:100DD0000F910895FA01AA27283051F1203181F1AD
:100DE000E8946F936E7F6E5F7F4F8F4F9F4FAF4F33
:100DF000B1E03ED0B4E03CD0670F781F891F9A1F46
:100E0000A11D680F791F8A1F911DA11D6A0F711DF9
:100E1000811D911DA11D20D009F468943F912AE005
:100E2000269F11243019305D3193DEF6CF010895ED
:100E3000462F4770405D4193B3E00FD0C9F7F6CF1E
:100E4000462F4F70405D4A3318F0495D31FD4052E6
:100E5000419302D0A9F7EACFB4E0A695979587957C
:100E600077956795BA95C9F700976105710508955B
:100E70009B01AC010A2E0694579547953795279507
:100E8000BA95C9F7620F731F841F951FA01D08959F
:100E90002F923F924F925F926F927F928F929F928A
:100EA000AF92BF92CF92DF92EF92FF920F931F9378
:100EB000CF93DF93CDB7DEB7CA1BDB0B0FB6F89429
:100EC000DEBF0FBECDBF09942A88398848885F8469
:100ED0006E847D848C849B84AA84B984C884DF80DA
:100EE000EE80FD800C811B81AA81B981CE0FD11DBE
:100EF0000FB6F894DEBF0FBECDBFED010895F89494
:020F0000FFCF21
:080F0200050A09060025640040
:00000001FF
