:100000000C9434000C9449000C9449000C94490061
:100010000C9449000C9449000C9449000C9449003C
:100020000C9449000C9449000C9449000C9449002C
:100030000C9449000C9449000C9449000C9449001C
:100040000C9449000C9449000C9449000C9449000C
:100050000C9449000C9449000C9449000C944900FC
:100060000C9449000C94490011241FBECFEFD8E036
:10007000DEBFCDBF11E0A0E0B1E0ECECF0E002C0EB
:1000800005900D92A030B107D9F70E944B000C9457
:1000900064000C9400008FEF84B995E08AE095B974
:1000A0002FEB37E249E0215030404040E1F700C0FB
:1000B000000085B92FEB37E249E021503040404045
:0C00C000E1F700C00000EBCFF894FFCF88
:00000001FF
