S01E000053656C6644726976696E672D6361722D7068617365312E73726563D7
S11300000C9434000C947F060C94EB060C94510071
S11300100C9451000C9451000C9451000C94510018
S11300200C9451000C9490070C9451000C945100C2
S11300300C9451000C9454070C9451000C945100EE
S11300400C9451000C9451000C9451000C945100E8
S11300500C9451000C9451000C9451000C945100D8
S11300600C9451000C94510011241FBECFEFD8E022
S1130070DEBFCDBF12E0A0E0B1E0EAE5FCE102C0E2
S113008005900D92A632B107D9F722E0A6E2B2E0BC
S113009001C01D92A83AB207E1F70E941A040C9419
S11300A02B0E0C940000EAE7F0E0808187608083E7
S11300B0ACE7B0E08C9180648C938081806880830D
S11300C08081806480830895ECE7F0E09081907FE4
S11300D090839081892B8083EAE7F0E080818064BB
S11300E0808380917A0086FDFCCF80917800909186
S11300F0790008950F931F93CF930E945300C0E09B
S113010080E090E00BC08C01000F111F8C2F0E9427
S1130110640081709927802B912BCF5FC03198F3B5
S11301200E94D30ACF911F910F91089560913C01D1
S113013070913D0180913E0190913F0128E431EEA0
S11301404AE75FE30E94ED0960933C0170933D012F
S113015080933E0190933F0108950E94CE0A64E685
S113016070E00E945A0ABC01990F880B990B0E94F7
S11301703D0920E030E048EC52E40E9493082091CD
S11301803C0130913D0140913E0150913F010E945C
S11301908E08882314F481E0089580E008950E9475
S11301A0CE0A63E070E00E945A0A08950E94E607AE
S11301B008956F927F928F929F92AF92BF92CF9247
S11301C0DF92EF92FF920F931F93CF93DF93EC0193
S11301D000E010E0812C0F2EF0ECAF2EF02D0F2E4E
S11301E0F9E7BF2EF02D0F2EF4EC9F2EF02D24C036
S11301F0FE01EE0FFF1FEC0FFD1FE00FF11FEE0FCE
S1130200FF1FEE0FFF1FEA5DFD4FC080D180E2802B
S1130210F3802C2D3D2D4E2D5F2D682D7A2D8B2DA9
S1130220992D0E948E0888232CF438018C2CAD2C37
S1130230BE2C9F2C0F5F1F4F03301105CCF2CE0153
S1130240880F991FC80FD91FC60DD71DCC0FDD1FEE
S1130250CC0FDD1FCA5DDD4F688179818A819B8166
S1130260DF91CF911F910F91FF90EF90DF90CF908E
S1130270BF90AF909F908F907F906F9008954F9212
S11302805F926F927F928F929F92AF92BF92CF9222
S1130290DF92EF92FF920F931F93CF93DF93CDB72B
S11302A0DEB728970FB6F894DEBF0FBECDBF0D831F
S11302B01E832F8338878C01000F111F080F191F0D
S11302C0040F151F000F111F000F111F0A5D1D4F92
S11302D0D8014D905D906D907C9040929302509225
S11302E094026092950270929602CB010E94D9000A
S11302F069837A838B839C8360939B0270939C02B3
S113030080939D0290939E02A701960160E070E0A5
S113031080E89FE30E9421089B01AC01C301B20164
S11303200E94ED092B013C01A501940169817A81A8
S11303308B819C810E94ED092D813E814F815885DE
S11303400E9422089B01AC01C701B6010E94ED097D
S11303509B01AC01C301B2010E94220860938D028B
S113036070938E0280938F0290939002F8016083C1
S113037071838283938328960FB6F894DEBF0FBEF1
S1130380CDBFDF91CF911F910F91FF90EF90DF9040
S1130390CF90BF90AF909F908F907F906F905F9021
S11303A04F9008956F927F928F929F92AF92BF92D7
S11303B0CF92DF92EF92FF920F931F93CF93DF932D
S11303C08C01C0E0D0E0812C0F2EF0ECAF2EF02D8C
S11303D00F2EF9E7BF2EF02D0F2EF4EC9F2EF02DEB
S11303E023C0F801EE0FFF1FE00FF11FEC0FFD1FFC
S11303F0EE0FFF1FEE0FFF1FEA5DFD4FC080D1809F
S1130400E280F3802C2D3D2D4E2D5F2D682D7A2D0D
S11304108B2D992D0E948E0888232CF43E018C2C60
S1130420AD2CBE2C9F2C2196C330D105D4F2B30140
S1130430770C880B990B0E943D09DF91CF911F9196
S11304400F91FF90EF90DF90CF90BF90AF909F906F
S11304508F907F906F9008950F931F93CF93DF93A6
S11304608B019F938F9385E491E09F938F9382E612
S113047092E09F938F930E94DE0A0F900F900F904B
S11304800F900F900F90C0E0D0E00DC0FE01EE5928
S1130490FD4F80810E94160687E893E10197F1F7EA
S11304A000C000002196C017D10784F3DF91CF91DB
S11304B01F910F910895EF92FF920F931F93CF9383
S11304C0DF937C018B01C0E0D0E00DC0F701EC0F9D
S11304D0FD1F80810E94160687E893E10197F1F7DA
S11304E000C000002196C017D10784F3DF91CF919B
S11304F01F910F91FF90EF900895009719F40E94B7
S1130500F20508958130910519F40E94E0050895DB
S11305108230910519F40E94CE050895039711F4D1
S11305200E94040608952F923F924F925F926F9219
S11305307F928F929F92AF92BF92CF92DF92EF926F
S1130540FF920F931F93CF93DF9300D000D000D07E
S1130550CDB7DEB769837A838B839C838A013E831C
S11305602D830E9405092B013C010F2EFAE0CF2EAA
S1130570D12CF02DCB01B6010E945A0A9C01D8015E
S113058013968C930F2EF4E6EF2EF12CF02DC2016E
S1130590B7010E945A0A5C01821B930BB6010E94A8
S11305A05A0AD80112966C930F2EF8EE2F2EF3E010
S11305B03F2EF02DC201B1010E945A0A9C018A19F2
S11305C09B09B7010E945A0AD80111966C93C20183
S11305D060E177E20E945A0A821B930BB1010E94E8
S11305E05A0AF8016083B201550C880B990B0E94DA
S11305F03D099B01AC0169817A818B819C810E94B8
S1130600210820E030E44CE156E40E94ED094B015E
S11306105C010E940509FB01CB01B6010E945A0A44
S11306209C01AD81BE8113968C93CF01B7010E94CA
S11306305A0A3C01821B930BB6010E945A0AAD81EF
S1130640BE8112966C93CF01B1010E945A0A9C019B
S113065086199709B7010E945A0AAD81BE81119685
S11306606C93CF0160E177E20E945A0A821B930BDC
S1130670B1010E945A0AED81FE81608320E030E0DE
S1130680A901C501B4010E948E08882334F461E0F5
S113069070E08AE691E00E945B02E12CF12C0CC030
S11306A0F801EE0DFF1D808161E070E090E00E9492
S11306B02C02FFEFEF1AFF0A84E0E816F10484F33A
S11306C061E070E088E491E00E945B0200E010E0E9
S11306D00CC0ED81FE81E00FF11F808161E070E0CC
S11306E090E00E942C020F5F1F4F043011058CF321
S11306F026960FB6F894DEBF0FBECDBFDF91CF9123
S11307001F910F91FF90EF90DF90CF90BF90AF902B
S11307109F908F907F906F905F904F903F902F901D
S113072008950F931F93CF93DF9381E088B92FE34C
S11307308DE093E0215080409040E1F700C000003C
S113074018B862E070E08AE491E00E945B026EE116
S113075070E08CE491E00E945B0262E070E08AE465
S113076091E00E945B026EE170E08CE691E00E94F1
S11307705B0262E070E08AE491E00E945B026EE159
S113078070E08CE491E00E945B0262E070E08AE435
S113079091E00E945B0200E010E043C061E070E081
S11307A08BE891E00E945B0261E070E0C8010E9466
S11307B02C0265E170E087E591E00E945B0262E053
S11307C070E08AE491E00E945B02C0E0D0E01EC0C9
S11307D0F801EE0FFF1FE00FF11FEC0FFD1FEE0FEE
S11307E0FF1FEE0FFF1FEA5DFD4F60817181828163
S11307F093812AE832E04FE952E00E94930261E0DB
S113080070E08DE891E00E945B022196C330D1052F
S1130810FCF262E070E08AE491E00E945B020F5F08
S11308201F4F043011050CF4B9CFDF91CF911F9104
S11308300F9108958FEF87B90E9472050E94680591
S11308400E9435060E9449060E949C050E940906E2
S113085078940E947A00612C712C13C16CE170E0D1
S11308608FE891E00E945B0262E070E0C3010E94A5
S11308702C0262E070E08AE491E00E945B020E9434
S1130880D600EC0166E070E08EE192E00E945B022B
S113089061E070E0CE010E942C0262E070E08AE424
S11308A091E00E945B020E94AD00882339F161E16E
S11308B070E080EB91E00E945B0262E070E08AE409
S11308C091E00E945B020E94CF0090938C0280937F
S11308D08B026CE070E082EC91E00E945B0261E0CC
S11308E070E080918B0290918C020E942C0262E055
S11308F070E08AE491E00E945B0229C061E170E04B
S11309008FEC91E00E945B0262E070E08AE491E087
S11309100E945B02CE010E94D2010E9405097093DD
S11309208C0260938B026CE070E082EC91E00E9498
S11309305B0261E070E080918B0290918C020E94D6
S11309402C0262E070E08AE491E00E945B0263E1C1
S113095070E081EE91E00E945B0262E070E08AE464
S113096091E00E945B0280918B0290918C020E9424
S11309707D026CE070E082EC91E00E945B0261E039
S113098070E080918B0290918C020E942C0262E0B4
S113099070E08AE491E00E945B020E94D600C817CE
S11309A0D907A9F262E170E085EF91E00E945B0251
S11309B062E070E08AE491E00E945B0283E090E0F0
S11309C00E947D0262E170E088E092E00E945B0296
S11309D062E070E08AE491E00E945B020E94D6002B
S11309E0909392028093910269E070E08BE192E02F
S11309F00E945B0261E070E080919102909192020A
S1130A000E942C0262E070E08AE491E00E945B02A2
S1130A1040918B0250918C02FE01EE0FFF1FEC0FF0
S1130A20FD1FE40FF51FEE0FFF1FEE0FFF1FEC5F1E
S1130A30FE4F00811181228133810093970210932C
S1130A4098022093990230939A02809034019090F6
S1130A503501A0903601B0903701C0903801D09094
S1130A603901E0903A01F0903B016091910270915C
S1130A709202CE010E943F010E9496008FEF681AF5
S1130A80780A84E6681671040CF4E8CE0E94910397
S1130A908AE00E9416068AE00E9416068AE00E94F6
S1130AA016060E94D600EC01CE010E94D2010E94DB
S1130AB0050970938C0260938B02CB010E947D0226
S1130AC00E94D600C817D90779F30E940406E3CF21
S1130AD08AB180648AB984B5836884BD85B5816030
S1130AE085BD08958AB180628AB984B5836284BD64
S1130AF085B5816085BD0895682F70E080E090E041
S1130B000E943D0923E333E343E250E40E94ED09EC
S1130B100E940C0967BD0895682F70E080E090E0A2
S1130B200E943D0923E333E343E250E40E94ED09CC
S1130B300E940C0968BD089584B18F6084B908953A
S1130B40CF93C62F95B1907FE82FF0E0E05CFE4F85
S1130B502081922B95B9823038F4862F0E947C052F
S1130B608C2F0E948C0518C0823039F4862F0E9485
S1130B707C058C2F0E948C050FC0833039F4862F9E
S1130B800E947C058C2F0E948C0506C080E00E9488
S1130B907C0580E00E948C05CF91089567E382E094
S1130BA00E94A0052FE78AE196E021508040904002
S1130BB0E1F700C0000060E084E00E94A005089511
S1130BC067E383E00E94A0052FE78AE196E02150C5
S1130BD080409040E1F700C0000060E084E00E94A3
S1130BE0A005089567E380E00E94A0052FE78AE14D
S1130BF096E0215080409040E1F700C0000060E0A2
S1130C0084E00E94A005089560E084E00E94A005AD
S1130C10089584E08093C50080E18093C40088E057
S1130C208093C10086E08093C20008958093C6003B
S1130C3008951092800081E08093810010928500D5
S1130C4010928400EFE6F0E0808181608083089553
S1130C501092B00081E08093B1001092B200E0E7FE
S1130C60F0E0808181608083089584B1806284B9DA
S1130C708AB18B7F8AB98BB184608BB9E9E6F0E0E5
S1130C808081816080838DB381608DBB0E94190651
S1130C90089584B1806184B98AB1877F8AB98BB1A0
S1130CA088608BB9E9E6F0E08081846080838DB34D
S1130CB082608DBB0E942806089580916102811193
S1130CC00CC085B1806285B980E58A95F1F785B15C
S1130CD08F7D85B981E080936102089580916002DF
S1130CE081110CC085B1806185B980E58A95F1F7E1
S1130CF085B18F7E85B981E08093600208951F924B
S1130D000F920FB60F9211242F933F934F935F933B
S1130D106F937F938F939F93AF93BF93EF93FF93BF
S1130D2080916102813009F045C080915F02811198
S1130D3010C0109285001092840081E080935F02BD
S1130D4010925A0210925B0210925C0210925D02A1
S1130D5031C080915A0290915B02A0915C02B091E3
S1130D605D02DC0199278827209184003091850059
S1130D70BC01CD01620F731F811D911D0E943B09AF
S1130D8023E333E349E654E40E9493080E940C09E8
S1130D906093A4027093A5028093A6029093A70285
S1130DA010925A0210925B0210925C0210925D0241
S1130DB010925F02FF91EF91BF91AF919F918F913C
S1130DC07F916F915F914F913F912F910F900FBE43
S1130DD00F901F9018951F920F920FB60F92112427
S1130DE02F933F934F935F936F937F938F939F932F
S1130DF0AF93BF93EF93FF9380916002813009F02A
S1130E0042C080915E0281110EC01092B20081E056
S1130E1080935E021092560210925702109258026A
S1130E201092590230C08091560290915702A091BD
S1130E305802B0915902BA2FA92F982F88272091D0
S1130E40B200BC01CD01620F711D811D911D0E9474
S1130E503B0923E333E349E654E40E9493080E94E8
S1130E600C096093A0027093A1028093A202909354
S1130E70A302109256021092570210925802109236
S1130E80590210925E02FF91EF91BF91AF919F9131
S1130E908F917F916F915F914F913F912F910F901F
S1130EA00FBE0F901F9018951F920F920FB60F92BE
S1130EB011242F938F939F93AF93BF9380915A02E2
S1130EC090915B02A0915C02B0915D020196A11D1C
S1130ED0B11D80935A0290935B02A0935C02B0937D
S1130EE05D028B3D9240A105B10580F01092850012
S1130EF0109284001092610210925F0210925A02C2
S1130F0010925B0210925C0210925D02BF91AF914D
S1130F109F918F912F910F900FBE0F901F90189556
S1130F201F920F920FB60F9211242F938F939F93BA
S1130F30AF93BF938091560290915702A0915802AB
S1130F40B09159020196A11DB11D80935602909350
S1130F505702A0935802B09359028B3D9240A105C9
S1130F60B10570F01092B2001092600210925E020D
S1130F70109256021092570210925802109259027F
S1130F80BF91AF919F918F912F910F900FBE0F90B2
S1130F901F9018950E945D0680E58A95F1F780916F
S1130FA0A4029091A502A091A602B091A70208956F
S1130FB00E946E0680E58A95F1F78091A0029091D7
S1130FC0A102A091A202B091A30208950E94CA07AF
S1130FD0459724F00E94D80745970CF50E94CA074C
S1130FE0459724F00E94D8074497E4F00E94CA076A
S1130FF0449724F40E94D8074597BCF40E94CA077A
S1131000449724F40E94D807449794F00E94CA0796
S11310100A978CF00E94D8070A9784F0089580E01C
S113102090E0089581E090E0089582E090E00895D2
S113103083E090E0089584E090E0089584E090E0F7
S113104008955058BB27AA270E9439080C94B30965
S11310500E94A50938F00E94AC0920F039F49F3FA2
S113106019F426F40C94A2090EF4E095E7FB0C9411
S11310709C09E92F0E94C40958F3BA176207730741
S11310808407950720F079F4A6F50C94E6090EF48C
S1131090E0950B2EBA2FA02D0B01B90190010C0184
S11310A0CA01A0011124FF27591B99F0593F50F49C
S11310B0503E68F11A16F040A22F232F342F4427F4
S11310C0585FF3CF469537952795A795F0405395EC
S11310D0C9F77EF41F16BA0B620B730B840BBAF0BC
S11310E09150A1F0FF0FBB1F661F771F881FC2F727
S11310F00EC0BA0F621F731F841F48F4879577953B
S11311006795B795F7959E3F08F0B0CF9395880FF4
S113111008F09927EE0F9795879508950E9478090E
S113112008F481E008950E94A7080C94B3090E9472
S1131130AC0958F00E94A50940F029F45F3F29F05A
S11311400C949C0951110C94E7090C94A2090E9477
S1131150C40968F39923B1F3552391F3951B550BF7
S1131160BB27AA2762177307840738F09F5F5F4F76
S1131170220F331F441FAA1FA9F335D00E2E3AF0B5
S1131180E0E832D091505040E695001CCAF72BD0CD
S1131190FE2F29D0660F771F881FBB1F261737071E
S11311A04807AB07B0E809F0BB0B802DBF01FF2750
S11311B093585F4F3AF09E3F510578F00C949C0988
S11311C00C94E7095F3FE4F3983ED4F38695779552
S11311D06795B795F7959F5FC9F7880F911D969509
S11311E0879597F90895E1E0660F771F881FBB1F65
S11311F0621773078407BA0720F0621B730B840B12
S1131200BA0BEE1F88F7E09508950E940C096894C4
S1131210B1110C94E70908950E94CC0988F09F57F6
S113122098F0B92F9927B751B0F0E1F0660F771F06
S1131230881F991F1AF0BA95C9F714C0B13091F0FC
S11312400E94E609B1E008950C94E609672F782F0F
S11312508827B85F39F0B93FCCF3869577956795C1
S1131260B395D9F73EF490958095709561957F4F2D
S11312708F4F9F4F0895E89409C097FB3EF49095D3
S11312808095709561957F4F8F4F9F4F9923A9F05B
S1131290F92F96E9BB279395F695879577956795EA
S11312A0B795F111F8CFFAF4BB0F11F460FF1BC02E
S11312B06F5F7F4F8F4F9F4F16C0882311F096E9C1
S11312C011C0772321F09EE8872F762F05C066236F
S11312D071F096E8862F70E060E02AF09A95660F28
S11312E0771F881FDAF7880F9695879597F90895E1
S11312F0990F0008550FAA0BE0E8FEEF1616170623
S1131300E807F907C0F012161306E407F50798F08A
S1131310621B730B840B950B39F40A2661F0232BA3
S1131320242B252B21F408950A2609F4A140A6951F
S11313308FEF811D811D089597F99F6780E870E004
S113134060E008959FEF80EC089500240A94161637
S1131350170618060906089500240A94121613069F
S1131360140605060895092E0394000C11F488232D
S113137052F0BB0F40F4BF2B11F460FF04C06F5F49
S11313807F4F8F4F9F4F089557FD9058440F551F1F
S113139059F05F3F71F04795880F97FB991F61F0F3
S11313A09F3F79F087950895121613061406551F6A
S11313B0F2CF4695F1DF08C0161617061806991FD6
S11313C0F1CF86957105610508940895E894BB27CB
S11313D066277727CB0197F908950E94000A0C9499
S11313E0B3090E94A50938F00E94AC0920F09523A6
S11313F011F00C949C090C94A20911240C94E70993
S11314000E94C40970F3959FC1F3950F50E0551FD6
S1131410629FF001729FBB27F00DB11D639FAA2745
S1131420F00DB11DAA1F649F6627B00DA11D661F94
S1131430829F2227B00DA11D621F739FB00DA11DB5
S1131440621F839FA00D611D221F749F3327A00D6F
S1131450611D231F849F600D211D822F762F6A2F0B
S113146011249F5750409AF0F1F088234AF0EE0F70
S1131470FF1FBB1F661F771F881F91505040A9F79D
S11314809E3F510580F00C949C090C94E7095F3F42
S1131490E4F3983ED4F3869577956795B795F795D9
S11314A0E7959F5FC1F7FE2B880F911D9695879551
S11314B097F9089597FB072E16F4009407D077FD4B
S11314C009D00E946E0A07FC05D03EF490958195E0
S11314D09F4F0895709561957F4F0895AA1BBB1B7C
S11314E051E107C0AA1FBB1FA617B70710F0A61B20
S11314F0B70B881F991F5A95A9F780959095BC0141
S1131500CD0108958F929F92AF92BF92CF92DF92B6
S1131510EF92FF92CF93DF93EC01688179818A8106
S11315209B81611571058105910521F464E279EDD2
S11315308BE597E02DE133EF41E050E00E94910DFF
S113154049015A019B01AC01A7EAB1E40E94B00D24
S11315506B017C01ACEEB4EFA50194010E94BE0DB9
S1131560DC01CB018C0D9D1DAE1DBF1DB7FF03C05B
S11315700197A109B04888839983AA83BB839F7785
S1131580DF91CF91FF90EF90DF90CF90BF90AF901D
S11315909F908F9008950E94820A089580E091E0C0
S11315A00E94820A0895A0E0B0E080930001909325
S11315B00101A0930201B09303010895AEE0B0E0ED
S11315C0E4EEFAE00C94D10D0D891E8986E08C833B
S11315D01A8309838FEF9FE79E838D83AE01475E55
S11315E05F4F6F89788DCE0101960E94000BEF81C9
S11315F0F885E00FF11F10822E96E4E00C94ED0DB7
S1131600ABE0B0E0E6E0FBE00C94C30D6C017B01C1
S11316108A01FC0117821682838181FFCCC1CE012D
S113162001963C01F6019381F70193FD859193FFA7
S113163081917F01882309F4BAC1853239F493FD7D
S1131640859193FF81917F01853229F4B60190E061
S11316500E94F70CE7CF912C212C312CFFE1F315DC
S1131660D8F08B3279F038F4803279F08332A1F4F7
S1131670232D20611DC08D3261F0803369F4232D48
S1131680216016C0832D8260382EE32DE4603E2E47
S11316902AC0F32DF8601DC037FC2DC020ED280FA3
S11316A02A3040F08E32B9F436FC81C1232D2064F7
S11316B0322E19C036FE06C08AE0989E200D1124F1
S11316C0922E11C0EAE02E9E200D1124222EF32D1D
S11316D0F0623F2E08C08C3621F4832D8068382EAA
S11316E002C0883641F4F70193FD859193FF8191FF
S11316F07F018111B3CF982F9F7D9554933028F4A7
S11317000C5F1F4F9FE399830DC0833631F08337FD
S113171071F0833509F059C021C0F80180818983B3
S11317200E5F1F4F88248394912C530113C028010A
S1131730F2E04F0E511CF801A080B18036FE03C0C8
S1131740692D70E002C06FEF7FEFC5010E94EC0CC1
S11317504C018201F32DFF773F2E16C0280122E0B1
S1131760420E511CF801A080B18036FE03C0692DE1
S113177070E002C06FEF7FEFC5010E94E10C4C01E5
S1131780F32DF0683F2E820133FC1BC0822D90E0C4
S113179088169906B0F4B60180E290E00E94F70C36
S11317A02A94F4CFF50137FC859137FE81915F01CE
S11317B0B60190E00E94F70C21102A9421E0821ACD
S11317C091088114910471F7E8C0843611F08936C8
S11317D041F5F80137FE07C06081718182819381F0
S11317E00C5F1F4F08C060817181072E000C880BAD
S11317F0990B0E5F1F4FF32DFF763F2E97FF09C005
S113180090958095709561957F4F8F4F9F4FF068AD
S11318103F2E2AE030E0A3010E94330D882E861863
S113182045C0853731F4232D2F7EB22E2AE030E0D7
S113183025C0932D997FB92E8F36C1F018F48835C1
S113184079F0B5C0803719F0883721F0B0C0E92F9E
S1131850E061BE2EB4FE0DC0FB2DF460BF2E09C0A6
S113186034FE0AC0292F2660B22E06C028E030E0DC
S113187005C020E130E002C020E132E0F801B7FE0B
S113188007C060817181828193810C5F1F4F06C004
S11318906081718180E090E00E5F1F4FA3010E9480
S11318A0330D882E8618FB2DFF773F2E36FE0DC094
S11318B0232D2E7FA22E891458F434FE0BC032FC43
S11318C009C0832D8E7EA82E05C0B82CA32C03C07E
S11318D0B82C01C0B92CA4FE0FC0FE01E80DF11D07
S11318E08081803321F49A2D997EA92E09C0A2FE0D
S11318F006C0B394B39404C08A2D867809F0B394D7
S1131900A3FC11C0A0FE06C0B21488F4280C922CCB
S11319109B180EC0B21460F4B60180E290E00E94FD
S1131920F70CB394F7CFB21418F42B1802C0982C08
S1131930212CA4FE10C0B60180E390E00E94F70CB5
S1131940A2FE17C0A1FC03C088E790E002C088E5AE
S113195090E0B6010CC08A2D867859F0A1FE02C031
S11319608BE201C080E2A7FC8DE2B60190E00E9408
S1131970F70C891438F4B60180E390E00E94F70C68
S11319809A94F7CF8A94F301E80DF11D8081B60192
S113199090E00E94F70C8110F5CF222009F442CE8A
S11319A0B60180E290E00E94F70C2A94F6CFF6018B
S11319B08681978102C08FEF9FEF2B96E2E10C9412
S11319C0DF0DFC010590615070400110D8F780953F
S11319D090958E0F9F1F0895FC01615070400190F7
S11319E00110D8F7809590958E0F9F1F08950F933F
S11319F01F93CF93DF93FB01238121FD03C08FEF5E
S1131A009FEF2CC022FF16C0468157812481358167
S1131A104217530744F4A081B1819D012F5F3F4FCA
S1131A20318320838C93268137812F5F3F4F378307
S1131A30268314C08B01EC01FB010084F185E02DA9
S1131A400995892BE1F6D80116968D919C911797EB
S1131A50019617969C938E931697CE01DF91CF91A2
S1131A601F910F910895FA01AA27283051F12031CE
S1131A7081F1E8946F936E7F6E5F7F4F8F4F9F4F1E
S1131A80AF4FB1E03ED0B4E03CD0670F781F891F60
S1131A909A1FA11D680F791F8A1F911DA11D6A0F2E
S1131AA0711D811D911DA11D20D009F468943F91E1
S1131AB02AE0269F11243019305D3193DEF6CF01E0
S1131AC00895462F4770405D4193B3E00FD0C9F7A6
S1131AD0F6CF462F4F70405D4A3318F0495D31FD13
S1131AE04052419302D0A9F7EACFB4E0A695979566
S1131AF0879577956795BA95C9F70097610571053C
S1131B0008959B01AC010A2E069457954795379585
S1131B102795BA95C9F7620F731F841F951FA01DDF
S1131B200895052E97FB1EF400940E94A80D57FDFE
S1131B3007D00E94FA0D07FC03D04EF40C94A80DB4
S1131B4050954095309521953F4F4F4F5F4F0895E5
S1131B5090958095709561957F4F8F4F9F4F089515
S1131B600E941C0EA59F900DB49F900DA49F800D04
S1131B70911D11240895B7FF0C94B00D0E94B00D6F
S1131B80821B930B08952F923F924F925F926F9214
S1131B907F928F929F92AF92BF92CF92DF92EF92F9
S1131BA0FF920F931F93CF93DF93CDB7DEB7CA1B7A
S1131BB0DB0B0FB6F894DEBF0FBECDBF09942A88A5
S1131BC0398848885F846E847D848C849B84AA844D
S1131BD0B984C884DF80EE80FD800C811B81AA81DA
S1131BE0B981CE0FD11D0FB6F894DEBF0FBECDBFA5
S1131BF0ED010895A1E21A2EAA1BBB1BFD010DC025
S1131C00AA1FBB1FEE1FFF1FA217B307E407F507A8
S1131C1020F0A21BB30BE40BF50B661F771F881F84
S1131C20991F1A9469F760957095809590959B011A
S1131C30AC01BD01CF010895A29FB001B39FC001C3
S1131C40A39F700D811D1124911DB29F700D811DE4
S10D1C501124911D0895F894FFCFAC
S1131C5A0100000000002041000000C0000040C054
S1131C6A000000C000002041000020C1000000C0A4
S1131C7A000020C100002041000020C10000803F74
S1131C8A000020410000003FCDCC4C3D48E17A3FA2
S1131C9A050A0906002564002E000A002D2D2D2DA3
S1131CAA2D2D2D2D2D2D2D2D2D2D2D2D2D2D2D2D56
S1131CBA2D2D2D2D2D2D2D2D2D2D2D002D2D547207
S1131CCA61696E696E6746696E7369685374617295
S1131CDA7454657374696E672D2D00530020002DAA
S1131CEA2D2D2D2D2D2D2D2D2D2D2D2D2D2D2D2D16
S1131CFA2D2D2D2D2D2D2D457069736F64653D0095
S1131D0A4558504C4F52452D2D2D2D2D2D2D2D2D11
S1131D1A2D00416374696F6E54616B656E3D0045B5
S1131D2A58504C4F49542D2D2D2D2D2D2D2D2D2D03
S1131D3A00494E444F5748494C452D2D2D2D2D2DE4
S1131D4A2D2D2D2D004F55545748494C452D2D2DD9
S1131D5A2D2D2D2D2D2D2D0053544F5050505050B4
S1131D6A2D2D2D2D2D2D2D2D2D2D004E45575374F2
S1091D7A6174653D0000E8
S9030000FC
